:020000040002F8
:1060000070600020DD630200E5630200E7630200C8
:10601000E9630200EB630200ED6302000000000090
:10602000000000000000000000000000EF6302001C
:10603000F163020000000000F3630200F563020058
:10604000C167020015680200816D0200F76302005B
:10605000F7630200F76302008D650200F763020038
:10606000396D0200516D0200696D0200F763020094
:10607000F7630200F7630200F7630200F7630200B0
:10608000F7630200A1680200F7630200F7630200F1
:10609000F7630200F76302005969020061690200B8
:1060A000F7630200F7630200F7630200F763020080
:1060B000F7630200F7630200000000000000000028
:1060C000F7630200F7630200F7630200F763020060
:1060D000B9680200F7630200F763020000000000E5
:1060E00000000000000000000000000000000000B0
:1060F00000000000000000000000000000000000A0
:10610000000000000000000000000000000000008F
:10611000000000000000000000000000000000007F
:10612000000000000000000000000000000000006F
:10613000000000000000000000000000000000005F
:10614000000000000000000000000000000000004F
:10615000000000000000000000000000000000003F
:10616000000000000000000000000000000000002F
:10617000000000000000000000000000000000001F
:10618000000000000000000000000000000000000F
:1061900000000000000000000000000000000000FF
:1061A00000000000000000000000000000000000EF
:1061B00000000000000000000000000000000000DF
:1061C00000000000000000000000000000000000CF
:1061D00000000000000000000000000000000000BF
:1061E00000000000000000000000000000000000AF
:1061F000000000000000000000000000000000009F
:10620000DFF80CD000F084F900480047FDA602003A
:106210007060002000B583B002900091019244F2BA
:10622000010071466A4600F0BBFF03B000BD0000EC
:1062300030B450E8012F93B2C48923448489A34227
:1062400028BF1B1B0489A34202BFBFF32F8F00206E
:1062500007E0C3EA020340E80134002CE9D14FF023
:1062600001000A6030BC704750E8012FC2EA0242C8
:1062700040E801210029F7D1704730B450E8022FDF
:106280001FFAA2F3C488A34202BFBFF32F8F0020DE
:106290000DE0C48923448489A34228BF1B1BC2EAA2
:1062A000034340E80234002CE8D14FF001000A60BB
:1062B00030BC704750E8022FC2EA224240E8022177
:1062C0000029F7D17047034653E8022FD988B2EB73
:1062D000324F4FF0000017BF92B241EA014142EA4B
:1062E000014104E05A68B2EB324F08BF012043E895
:1062F0000212002AE8D1704730B4044654E8000F77
:106300000D4644E80053002BF8D1156030BC7047AF
:1063100030B4044654E8000F40EA010544E8005355
:10632000002BF7D1156030BC704730B4044654E8F8
:10633000000F00EA010544E80053002BF7D1156077
:1063400030BC704730B4044654E8000F80EA0105C1
:1063500044E80053002BF7D1156030BC704730B4CF
:10636000044654E8000F00EB010544E80053002BFD
:10637000F7D1156030BC704730B4044654E8000FC4
:10638000A0EB010544E80053002BF7D1156030BCA9
:10639000704770B404464FF0000054E8006F0D6879
:1063A000AE4207BF44E80023012044E800630E60CA
:1063B000002B1CBF0020F0E770BC704730B40446CF
:1063C00054E8000F88422CBF451A054644E80053A4
:1063D000002BF5D1156030BC70470000064880479F
:1063E00006480047FEE7FEE7FEE7FEE7FEE7FEE7BA
:1063F000FEE7FEE7FEE7FEE7A16A02000162020097
:106400002DE9F05F0546002092469B4688460646E9
:10641000814640241BE0284641464746224600F07C
:106420002FF853465A46C01A914110D311461846C8
:10643000224600F016F82D1A67EB01084F46224657
:106440000120002100F00DF817EB00094E41201E3D
:10645000A4F10104DFDC484631462A464346BDE844
:10646000F09F202A04DB203A00FA02F10020704756
:106470009140C2F1200320FA03F319439040704782
:10648000202A04DB203A21FA02F00021704721FA89
:1064900002F3D040C2F120029140084319467047F0
:1064A00000487047AC01030040EA01039B0703D09A
:1064B00009E008C9121F08C0042AFAD203E011F843
:1064C000013B00F8013B521EF9D27047D2B201E005
:1064D00000F8012B491EFBD270470022F6E710B5E9
:1064E00013460A4604461946FFF7F0FF204610BD42
:1064F000421C10F8011B0029FBD1801A704703468B
:1065000011F8012B00F8012B002AF9D11846704729
:10651000064C074D06E0E06840F0010394E80700F0
:1065200098471034AC42F6D3FFF76EFE30090300F3
:106530005009030070B58C1810F8015B15F00703C3
:1065400001D110F8013B2A1106D110F8012B03E00C
:1065500010F8016B01F8016B5B1EF9D12B0705D414
:106560000023521E0DD401F8013BFAE710F8013B5D
:10657000CB1A921C03E013F8015B01F8015B521E79
:10658000F9D5A142D8D3002070BD00002DE9F04F0D
:1065900089B00027002008904FF4807007900126F2
:1065A000002412E0079804F0CDFF40B100BF7B4803
:1065B0000068304018B1079804F0B6FF3743760002
:1065C0000798001D80B20790641C082CEAD34FF492
:1065D000BE7004F0B7FF50B14FF4BE7004F0A4FFDA
:1065E00047F0004708AA0121002004F083FFF8B219
:1065F00000B3012600241BE006EA0700B0B100BF8B
:10660000674850F82400C0F30420804600BF644867
:1066100050F82400C0F301408146204602F07CFD82
:10662000054615B149464046A84700BF7600641CA0
:10663000082CE1D307F0004000287DD00020069010
:106640000590002505E04FF0FF3004A941F8250032
:106650006D1C002DF7D000BF0020069000245FE0E5
:106660005048005D0390039820F0C0094D48005742
:10667000401C002853D004A9484604F0EBFA002837
:106680004DD003984FEA901A484602F08DFD80469F
:1066900002F042FD0290029810B9BAF1030F3DD109
:1066A000BAF1030F03D105A9484604F0DEFA00BF92
:1066B00000BF4FF0A041084600F5E06151F82910F5
:1066C000C1F3014800BF08A9484604F0C3FA834655
:1066D000BBF1000F02D0B8F1020F05D0BBF1000FE3
:1066E0001BD1B8F1030F18D1BAF1030F0FD1B8F1D4
:1066F000020F01D1032000E00220019048460199D9
:1067000004F07FFE0698401CC0B2069000BF0298BD
:1067100018B151464846029A904700BF00BF641C1A
:10672000042C9DD3069888B34FF0010803AA0121D9
:10673000002004F0DFFE00E02DE000250BE003A8C0
:1067400050F8250008A951F82510884202D04FF0D2
:10675000000802E06D1C002DF1D000BFB8F1000F61
:1067600002D00020069010E000250CE003A850F8AD
:10677000250008A941F8250005A850F8250004A91E
:1067800041F825006D1C002DF0D000BF06980028B0
:106790007FF462AF00BF09B0BDE8F08F0463004032
:1067A00010650040D836002000F01F020121914002
:1067B0004209920002F1E022C2F800117047000085
:1067C00010B54FF4807004F070FB80B14FF480700E
:1067D00004F074FB012004F07BFB0D48407930B9D4
:1067E00001200B49487108460168002088474FF492
:1067F000827004F05AFB50B14FF4827004F05EFBDB
:10680000022004F065FB024801680120884710BDA2
:10681000F42B002070B51B480068002831D0002000
:10682000184908601848D0F80C0118480078012869
:1068300024D11748006800F00100F8B11548046839
:10684000204608F049F9054695B1134804F095F93A
:10685000044600BF0CB1012000E00020064626B926
:1068600000BF002000F0FAFC00BF00BF0948046030
:106870000A480068401C0949086000BF012002491D
:10688000886070BD0C110040001000406C2B00208F
:106890000014004004150040F0090300602B0020A4
:1068A00010B5034A1068034A1168884710BD0000FC
:1068B0006C2C0020682C002010B504220021024816
:1068C00003F0D0FD10BD00000040024010B500F004
:1068D0005FFA10BD2DE9F047074688461646C246C6
:1068E00007EB47011B4800EBC109D9F8140020B1A0
:1068F000012811D0022826D11EE0484600F080FA77
:106900000546B54201D2002405E0344632465146E0
:10691000484600F0BCFA18E0484600F071FA054617
:10692000B54201D2284600E0304604462246514690
:10693000484600F0ACFA08E032465146484600F0BE
:106940006DFA044601E0002400BF00BF2046BDE808
:10695000F0870000FC3D002010B505F0FFFC10BDE5
:1069600010B52E480068002856D000202B4908603A
:1069700007F0EEF82A48006880682A49086008464F
:10698000006829490968401AC82802D90120274906
:10699000087024480068244908602448007888B1B9
:1069A000122004F052FD2249224A891AC908032202
:1069B00042EA014020A105F04DF800202849086076
:1069C0001A490870264800680A2818D3122000BF08
:1069D0004FF0A0410A46012303FA00F1C2F808155E
:1069E00000BF00BF1249134A891AC908032242EAAC
:1069F00001401CA105F02EF8002019490860184834
:106A00000068401C1649086000201F4908700448AF
:106A100001681E4804F0E2F810BD0000007101405A
:106A2000682B00205C2B0020B82B0020B02B00200E
:106A30006009030060090300535749335F45475518
:106A4000335F49525148616E646C65722053594EF0
:106A5000435F50494E5F52455345540D0A000000B4
:106A6000B42B0020535749335F454755335F495294
:106A70005148616E646C65722053594E435F5049B2
:106A80004E5F5345540D0A00592B0020F0090300B6
:106A900001480249086070470090D003DC2C0020B8
:106AA00010B503F02DF828B192480088C0F30420F7
:106AB0009149086003F078F810B190489049486710
:106AC00003F09AF830B18B48E0380068C0F34230E8
:106AD0008C49086003F0BAF828B18B48006820F0B0
:106AE00080708949086003F0C9F848B100208749DF
:106AF00008604FF08041C1F810018249091F086009
:106B000003F0E6F818B103207E496431086003F011
:106B1000F7F868B105207E49086001207C4978318A
:106B2000086000207A49083108603F20091F08608A
:106B300003F0FEF8002855D06E48E0300068754933
:106B400008606C48E4300068091D08606948E83056
:106B50000068091D08606748EC300068091D08607E
:106B60006448F0300068091D08606248F43000682D
:106B7000091D08605F48F8300068664920310860E8
:106B80005C48FC300068091D086063480068091D06
:106B900008606148001D0068091D08605E480830F3
:106BA0000068091D08605C480C300068091D086019
:106BB0005948103000685749403108605648143031
:106BC0000068091D0860544818300068091D0860F5
:106BD00051481C300068091D08604F48203000688B
:106BE000091D086002F062FF30B14248CC380068ED
:106BF00000F04F004949086002F0ACFF40B148483E
:106C0000006800F0010018B16FF00100444908600D
:106C100002F0E2FF28B14348006840F48060414937
:106C2000086039487438006840F470003649743997
:106C3000086000BF00BF00BFBFF34F8F00BF00BFA1
:106C400000BF00BF00BF00BFBFF36F8F00BF00BF1A
:106C500000BF3548006800F0004028B93248001DE8
:106C6000006800F00040E8B301203049086000BF30
:106C70002F4800680028FBD015202B49086000BF72
:106C80002B4800680028FBD015212748001D016013
:106C900000BF274800680028FBD000202349086077
:106CA00000BF234800680028FBD000BF00BF00BF22
:106CB00000BF00BFBFF34F8F00BF00BF00BF12482F
:106CC000F038006800F4E0601A490843001D0E49DE
:106CD000F039086000BF00BF00BFBFF34F8F00BF97
:106CE00000BF00E003E000BF00BF00BFFDE7FFF70B
:106CF000CFFE10BD24030010403501400DF0ADBAA9
:106D000000C007403C050040FCED00E00C010040E5
:106D10001056004020C5004024040010E40E00403E
:106D2000000400403C1700400012001004E5014040
:106D300000E401400000FA0510B5042202490348AE
:106D400003F061FB10BD00003437002000800040DC
:106D500010B504220249034803F055FB10BD0000A2
:106D6000403700200090004010B50422024903483B
:106D700003F049FB10BD00004C37002000A000408C
:106D800010B502490868804710BD0000FC2B0020A8
:106D900010B5124C02202061606111A0A06113495E
:106DA000E1614FF4007121620021A1626162E16240
:106DB0000BA0A0640E49E164102121650021A165AA
:106DC0006165E1650BA1E01DFFF799FB0AA1204673
:106DD000FFF795FB2020A07110BD0000E43D0020CE
:106DE0005465726D696E616C000000005C3E0020AD
:106DF0005C40002052545400534547474552000020
:106E000010B501460A69CB689A4204D88C68641EA2
:106E1000E41AA01801E0D41A601E10BD2DE9F04755
:106E20000446894617464FF0000AE56800BFD4F8CB
:106E30001080A84503D9A8EB0500461E04E0A5EB89
:106E40000800401CA1680E1AA068401BB04201D97E
:106E5000304601E0A068401B0646BE4201D23046E3
:106E600000E0384606466168481932464946FFF751
:106E70001BFBB244B144BF1B3544A068A84200D1FB
:106E80000025E560002FD2D15046BDE8F0872DE9FE
:106E9000F047044689461546E668A068871BAF425E
:106EA00008D9616888192A464946FFF7FDFA701922
:106EB000E06010E0B8466168881942464946FFF72D
:106EC000F3FAA5EB070809EB070142466068FFF7F4
:106ED000EBFAC4F80C80BDE8F08702E008C8121F86
:106EE00008C1002AFAD170477047002001E001C1B3
:106EF000121F002AFBD170470146202908DA012021
:106F000088400A4A104008B1012070470020FCE781
:106F1000402909DAA1F12000012202FA00F008B1AB
:106F20000120F2E70020F0E70120EEE7FC06FFBDBC
:106F300000BFEFF31081084672B670470246002189
:106F400004E0505C08B101207047491C0629F8D3C1
:106F50000020F9E770B504460D4604F22740FFF71C
:106F6000EDFF0646012D06D0022D0DD0032D11D0C8
:106F7000042D19D113E0A07928B194F8240010B998
:106F80000EB1012070BD00BFE07910B10EB102203A
:106F9000F8E700BF207A08B10320F3E700BF607A6A
:106FA00008B10420EEE700BF0020EBE70146481CD3
:106FB000052290FBF2F302FB1300C0B270470146BA
:106FC00091F82420012A01D1EE2000E01F20704713
:106FD00010B501220221002001F05CFD044600BF33
:106FE0001CB1072C01D0204610BD00BF0722022192
:106FF000012001F04FFD044600BF1CB1072C01D059
:107000002046F1E700BF0A220021084601F042FDB8
:10701000044600BF1CB1072C01D02046E4E700BFA6
:107020000020E1E730B5ABB0AC216846FFF755FA78
:1070300002208DF8000000208DF8020006208DF857
:1070400003000121ADF84C100F49149101218DF876
:107050007C104FF4A0712291002123910B482990BC
:1070600069460B4800F0AEFC044600BF254625B13A
:1070700000BF284600F0F2F800BF00BF012104481D
:1070800000F09DFC2BB030BD062B002011D002007B
:10709000002D002070B50321064800F05AFD04467B
:1070A00000BF254625B100BF284600F0D7F800BF35
:1070B00000BF70BD002D002010B50446022001F075
:1070C000E9FA10BD10B5002407E00749096811F876
:1070D0003400012105F0ECFA641C04480078844275
:1070E000F3D3002010BD0000102C0020142C002031
:1070F0002DE9F84306460D4617460A2F02D207200F
:10710000BDE8F88305F004FC38B905F0ABFB044694
:1071100000BF204600B1F3E700BF184806601848DA
:1071200005701848076018480021016041608160BF
:10713000C160164A1160516015E006EBC50814489D
:107140000068009098F802008DF8010098F800009F
:10715000104A694605F002FB044600BF204600B114
:10716000CEE700BF00BF281EA5F10101CDB2E4D1DA
:10717000094A0021094800F0B9F8C1E7102C0020A5
:10718000142C0020182C002078370020202C002000
:10719000A0FE0200E5A002001D9702009CFE020076
:1071A00072B600BF04F022FD00BF00BF04F0C6FAB3
:1071B0000028FBD100BF00BF1D491E4A891AC9081B
:1071C000012242EA01401CA104F044FC00BF1D481A
:1071D000006800F0010000B100BE00BF1449154A6C
:1071E000891AC908022242EA014017A104F032FCC0
:1071F00000BF00BF00BF00BF00BFBFF34F8F00BF85
:1072000000BF00BF0F48E438006800F4E060124996
:107210000843001D0B49E439086000BF00BF00BFF0
:10722000BFF34F8F00BF00BF00BF00BF00BFFDE72F
:10723000D009030060090300466174616C20657227
:10724000726F7200F0ED00E053797374656D207217
:1072500065736574000000000000FA053EB5044641
:10726000002000900190029002946A46002144F2AE
:107270000100FFF795FF3EBD70B504460D46204660
:1072800002F01AFE28B12946204602F009FE00202D
:1072900070BD0520FCE7034609B90E20704712B106
:1072A000501E104008B10920F8E71960501E988060
:1072B00000209860D86000BFF0E770B504460D4626
:1072C000204602F0F9FDA188884205D829462046CB
:1072D00002F005FE002070BD0420FCE710B5024856
:1072E00002F09EFA10BD0000282C002010B50346C5
:1072F0000C460AB9072010BD19684A61012C01D15A
:10730000012000E0002008610020F4E738B51348B0
:10731000006800900823582211491248006803F0C1
:1073200063FB04460CB1204638BD0F4A69460F483E
:1073300002F07CFA04460CB12046F5E701210B4827
:1073400002F012FB01230A4A1946084802F03AFAF1
:107350000120084908702046E6E70000F0FF02001F
:1073600094370020E0FF02003DDF0200282C0020BF
:10737000FFFF7F00342C00202DE9F04106460D462A
:1073800017463446207F10B10020BDE8F081A76188
:1073900002F08AFE401941F10001C4E902012069AE
:1073A00000B125612146002007F0A0FCEDE770B593
:1073B00004462546002028772946012007F096FC40
:1073C00070BD000010B50A4C20780A49085C18B15D
:1073D000201D05F0E5FD07E020780649085C18B996
:1073E00004F10C0005F064FC00BF002010BD00009B
:1073F0004C2C0020F02B00202DE9F04104460F48D2
:10740000077821460E48FFF737FF804697B10020E6
:107410000A49087001220B490B4803F0F9FD0546A3
:1074200000BF2E4626B100BF3046FFF717FF00BF52
:1074300000BF00BF4046BDE8F0810000662C002080
:10744000FC370020652C00204C2C00202DE9F04159
:1074500088B004460E46174698462B4807601EB96A
:10746000072008B0BDE8F081B08882B227483168B3
:10747000FFF711FF054600BF284600B1F1E700BF46
:10748000B08982B22248B168FFF705FF054600BF08
:10749000284600B1E5E700BF20221E496846FFF7F5
:1074A00003F860690690207C08B1012000E000200C
:1074B0008DF814008DF81C80607C08B10E2000E06F
:1074C00000208DF81500E0680290A0680390206805
:1074D000019060680090104A6946104803F052FD20
:1074E000054600BF284600B1BBE700BF00200C499D
:1074F00008702068401C28B101220A49074803F09F
:1075000087FDAEE70020ACE7602C0020FC370020B0
:107510000C380020F4FF0200B5F302004C2C0020D0
:10752000662C0020652C00202DE9F04105462946F7
:107530001448FFF7C2FE064606BB134C002720780E
:107540001249085C20B1201D05F01AFD074608E02D
:1075500020780E49085C20B904F10C0005F096FB78
:10756000074600BF57B90A490648FFF785FE28B904
:1075700001220749044803F06DFD06463046BDE888
:10758000F08100000C3800204C2C0020F02B002053
:10759000642C002010B50446204606F017FE10BDEE
:1075A00070B5044625460E488068B0B1ADB9FFF706
:1075B000BFFC06460A4800680A4908600848406857
:1075C0004FF0E021C1F804010020054988601EB990
:1075D00000BF62B600BF00BF00BF00BF70BD0000AB
:1075E0008837002000E100E0F8B505460C46174654
:1075F0002088001DB84201D90C20F8BD684679DF0B
:10760000064600BF304600B1F7E700BF03202188DF
:1076100068542088401C20801920218868542088C4
:10762000401C208020884119BDF8000008F09EF918
:107630002188084420800020DFE770B505460C460D
:107640002068401C28B1206803F021FF206803F067
:10765000C0FE6068401C18B10021606803F09FFE06
:107660002868A169C0F8241500BF617D227D2868C3
:1076700041EA0203C0F86C3500BFD4E90012286863
:1076800004F092FF207D012814D1A068401C18B19D
:107690000021A06803F083FEE068401C28B1E06888
:1076A00003F0F5FEE06803F094FED4E902212868B7
:1076B00004F063FF70BD70B505460C462068401CA1
:1076C00028B1206803F0EEFE206803F08EFE6068AB
:1076D000401C18B10021606803F06EFE2868A169A3
:1076E000C0F8241500BF617D227D286841EA0203AD
:1076F000C0F86C3500BFD4E90012286804F08CFF94
:10770000207D012814D1A068401C18B10021A06878
:1077100003F052FEE068401C28B1E06803F0C2FEAE
:10772000E06803F062FED4E90221286804F055FF06
:1077300070BD0000002114E00C48D0F81024012393
:1077400008E000BFD0680079884201D1002303E03F
:10775000D0680268002AF4D100BF0BB10846704718
:10776000491C0A29E8DB4FF0FF30F8E7C039002058
:107770002DE9F04104460F46154615B90E20BDE827
:10778000F0810020286000BF0CB90E20F7E700BF91
:1077900000BF206808B90E20F1E700BF00BFE088F5
:1077A000C11700EB91718910A0EB810109B107208D
:1077B000E5E700BF384600F0D5FAC6B2142E01D175
:1077C0000520DCE72079B04201DC0420D7E7E1881E
:1077D000206806FB010028600020D0E72DE9FC416D
:1077E000054688461646002437880020308095F8E4
:1077F0002D0058B13A463146404600F0CBFA0446D7
:1078000000BF204608B1BDE8FC8100BFA87850B198
:107810003A4631464046FFF7E7FE044600BF2046A1
:1078200000B1F0E700BFE87860B1E97848B23B46C4
:107830003246414602F06BFB044600BF204600B1D1
:10784000E1E700BF686868B1696891F900003B46EC
:107850003246414607F018FD044600BF204600B1FD
:10786000D1E700BF288900280EDD43460622022109
:1078700005F10800CDE9006708F0ACF9044600BF47
:10788000204600B1BFE700BF288A00280EDD43462E
:107890000722032105F11000CDE9006708F09AF9ED
:1078A000044600BF204600B1ADE700BF288B00288A
:1078B0000EDD43461522142105F11800CDE90067BD
:1078C00008F088F9044600BF204600B19BE700BFDE
:1078D000286A58B13B4632464146286A01F0ECFD21
:1078E000044600BF204600B18DE700BF686A58B16A
:1078F0003B4632464146686A02F056FF044600BFE6
:10790000204600B17FE700BF95F82C0000280BDD72
:107910003B4632464146284606F058FD044600BF25
:10792000204600B16FE700BF287858B13B46324689
:107930004146284602F0F4FF044600BF204600B14D
:1079400061E700BF20465EE7F8B504460E461546DF
:10795000002000902B466A463146204600F008F889
:1079600007460FB90020F8BDBDF800002044FAE733
:10797000F0B504460D4604B10AB90020F0BD00215F
:1079800003E0605C401C084481B21088884203DC3C
:10799000481C205C984201D0A942F2DBA94201DBDD
:1079A0000020EBE7881C86B2605C401E87B2F019AD
:1079B000A84201DD0020E1E716803846DEE780F8C6
:1079C0003010704770B504460D4605B10CB90E2055
:1079D00070BD05F1780001F010FD08B90720F7E748
:1079E0000020A0702C2205F17801201DFEF75CFD1F
:1079F000002084F83000D5F8A4006063D5F8A80012
:107A0000A0634FF6FF70A4F8240404F58260C4F864
:107A10002004002140F22C40C4F82614A4F82A14B3
:107A20000155207810B9FF2084F8540004F1550066
:107A3000C4F810042046FFF7C2FA40F2144108537C
:107A400004F2144204F155012846FFF7C7FE06462A
:107A500000BF304600B1BBE700BF04F231204FF455
:107A6000836108512046FFF7AAFAA4F81C044FF4DA
:107A70008360015904F21C4205F13C00FFF7AEFEA1
:107A8000064600BF304600B1A2E700BF01215120E9
:107A90000155208B81B248200153012084F83C001D
:107AA00000212164502001556169616404F13C02A8
:107AB000002104F1540072DF064600BF304600B1D9
:107AC00086E700BF01202070304681E770B504468C
:107AD0000D462E462088102804D0112807D02628CD
:107AE0000FD109E02146304605F0B8FB0AE02146F7
:107AF000304605F078FC05E02146304605F0BFFD34
:107B000000E000BF00BF70BD70B5044694F854009B
:107B100074DF012084F82E04002084F83004002152
:107B2000502001550621204602F00CFA054600BF00
:107B3000284600B170BD00BFA178204600F009F8CA
:107B4000054625B1A06B10B12846A16B88470020DF
:107B5000F0E770B504460E46207808B9082070BDDD
:107B6000A670002140F22C40C4F82614A4F82A1470
:107B70000155A07910B1A078012809D0E07910B1A1
:107B8000A078012804D0E07970B1A07802280BD148
:107B9000606B30B1012084F82D040820616B8847A8
:107BA00002E0002084F82D0431462046FFF7D2F988
:107BB000A070606BA0B1A078032802D0A078042840
:107BC0000ED1607960B194F82E0448B9002084F891
:107BD0003004012084F82F040720616B884702E0FD
:107BE000002084F82F04182104F13C00FEF775FCF6
:107BF000012084F83C0004F12C0005F017FE20B1B0
:107C000094F82C105120015502E00121512001551A
:107C100094F8240060B104F1280005F007FE20B1BB
:107C200094F828105220015502E0012152200155FC
:107C3000002150200155A078052824D2DFE800F06B
:107C40001F030A11180004F13C01204606F050FC05
:107C5000054619E004F13C01204606F031FC0546DA
:107C600012E004F13C01204606F054FC05460BE00E
:107C700004F13C01204606F07BFC054604E00020B0
:107C800084F8310000E000BF00BFA07898B104F193
:107C90003C0204F15400D4F8201472DF05460DB103
:107CA00028465CE794F8301094F8540073DF0546DA
:107CB0000DB1284653E7606B18B194F83100616B41
:107CC000884700204BE700002DE9F041044600BF43
:107CD00014B90E20BDE8F08100BF1C2221461C48CB
:107CE000FEF7E2FB1B481A490860206860B1206873
:107CF0007ADF05460DB12846ECE7164821680A6888
:107D000002604968416005E012487BDF05460DB11D
:107D10002846DFE7002617E006EB86000E4901EB58
:107D2000800700BF4FF6FF70388000BF0B4800EBA4
:107D3000461078600A4A0021381DFFF7D7FA054639
:107D40000DB10320C6E7761C002EE5D00020C1E768
:107D5000DC350020E02B0020C8350020A8350020AD
:107D6000F9FA020010B50446204600F005F808B103
:107D7000204610BD1420FCE710B50446142C01DB8E
:107D8000002010BD2146024802F089FEF9E70000FC
:107D9000FC3500202DE9FC4105460C46174620889D
:107DA0000930B84202D90C20BDE8FC8168466DDF7D
:107DB000064600BF304600B1F6E700BF0820218824
:107DC00068542088401C20801B202188685420880B
:107DD000401C208020882844DDF801100160BDF897
:107DE000051081802088801D20809DF800004008BB
:107DF00018B900202188685402E0012021886854C5
:107E00002088401C20800020CEE70000F8B5054601
:107E10000F4600242888212849D006DC10281CD0D1
:107E2000112809D0132874D151E03B2873D052286F
:107E30005ED05628F7D17CE04FF6FF7045490880A8
:107E40004549464A891AC908032242EA014044A129
:107E500003F000FE07F0E4FB7AE03F493F4A891A4D
:107E6000C908032242EA014041A103F0F3FD0720C3
:107E700000F03EFE044600BF264626B100BF304655
:107E8000FFF7ECF900BF00BFA88832490880084618
:107E900001883A4802F0A2FF044600BF264626B1F8
:107EA00000BF3046FFF7DAF900BF00BF50E0002006
:107EB0000090A88869468FDF044600BF264626B199
:107EC00000BF3046FFF7CAF900BF00BF40E0002303
:107ED0001A4685211F4800887FDF044600BF2646DA
:107EE00026B100BF3046FFF7B9F900BF00BF00BFA1
:107EF00000231A46194617480088B1DF044600BF20
:107F0000264626B100BF3046FFF7A8F900BF00BFE4
:107F10001EE01CE0FFE7A888132176DF044600BFBF
:107F2000264626B100BF3046FFF798F900BF00BFD4
:107F30000EE0A888132176DF044600BF264626B14E
:107F400000BF3046FFF78AF900BF00BF00E000BF66
:107F500000BFF8BD002B0020D0090300600903001A
:107F6000446973636F6E6E65637465642E00000010
:107F7000436F6E6E65637465642E0000F42C002000
:107F800070B505460E462888102802D011282CD13D
:107F900015E01748006860B901F022FB044600BFF5
:107FA00034B11448006818B120461249096888475E
:107FB00000BF0F480068401C0D49086016E00C48DF
:107FC0000068401E0A4908600846006860B9FEF76C
:107FD000FFFF044600BF34B10648006818B12046D0
:107FE00004490968884700BF00E000BF00BF70BDBA
:107FF000DC2B0020D82B002070B504460D462088CD
:10800000102806D0112808D012280ED0502810D1E0
:1080100007E0204605F080F80CE0204605F0CAF99C
:1080200008E0204605F05CFB04E0204605F05CF823
:1080300000E000BF00BF70BD2DE9F04104460F46CF
:10804000A6882088102806D0112817D019283DD0DE
:108050001A2848D116E005F043FF304605F01CFF12
:1080600020B900BF0420FFF7F9F806E0E07B012803
:1080700003D031461D4802F021FD34E0304605F0C2
:1080800053FF30E0207A0509042D01DB012000E0D8
:1080900000200246314615480C3001F029FF032D1F
:1080A00001DB012000E00020024631460F48083085
:1080B00001F01EFF022D01DB012000E0002002463E
:1080C00031460A48001D01F013FF0CE0207A48B940
:1080D000607AC0F3C0052A46314604480C3001F0EE
:1080E00007FF00BF00BF00BFBDE8F08104360020DD
:1080F00070B5002013490860C82007F059F80446FD
:1081000000BF254625B100BF2846FFF7A7F800BFEE
:1081100000BF122003F0B0F90B490C4A891AC908B4
:10812000032242EA01400AA103F094FC0649074AEF
:10813000891AC908032242EA01400EA103F08AFC11
:1081400070BD0000642B0020D0090300600903000B
:10815000626C655F7265635F73796E635F68616EA1
:10816000646C652053594E435F50494E5F534554EC
:108170000D0A00005374617274696E672073796E22
:108180006320626561636F6E207472616E736D69E6
:108190007373696F6E210D0A0000000070B51D48F1
:1081A000006870B107F01CF8044600BF254625B1F1
:1081B00000BF2846FFF752F800BF00BF0020154956
:1081C0000860122003F036F91349144A891AC908C5
:1081D000032242EA014012A103F03CFC0A2002F013
:1081E00081FE122003F048F90B490C4A891AC9088C
:1081F000032242EA014014A103F02CFC0649074A7D
:10820000891AC908032242EA014018A103F022FC9E
:1082100070BD0000642B0020D0090300600903003A
:10822000626C655F7265635F73796E635F68616ED0
:10823000646C652053594E435F50494E5F5245531D
:1082400045540D0A00000000626C655F7265635F53
:1082500073796E635F68616E646C652053594E4339
:108260005F50494E5F5345540D0A000053746F70C0
:1082700070696E672073796E6320626561636F6EEB
:10828000207472616E736D697373696F6E210D0A6C
:108290000000000010B52748007828B1FFF728FF3C
:1082A0000020244908701DE02348007838B10521DA
:1082B000224800F0A3F800201F49087012E020486F
:1082C000007828B1FFF76AFF00201D49087009E017
:1082D0001C48007830B169211B4800F08FF800205D
:1082E000184908701948006888B1184800680528BE
:1082F0000DD2122003F09EF81549164A891AC908B2
:10830000032242EA014014A103F0A4FB10E00F484D
:10831000006805280CD3122003F0AEF80C490D4A72
:10832000891AC908032242EA014013A103F092FB13
:1083300010BD00000B2B00200A2B0020172B002063
:108340000C2B0020232B002034310020642B002034
:10835000D009030060090300626C655F7265635FAA
:1083600073796E632053594E435F50494E5F5245B7
:108370005345540D0A000000626C655F7265635FCF
:1083800073796E632053594E435F50494E5F534596
:10839000540D0A0070B50446204607F0E1FA054680
:1083A00005F0010070BD38B503F096FF044600BF2C
:1083B000254625B100BF2846FEF750FF00BF00BF8D
:1083C000002000906946012003F0D6FD044600BF5E
:1083D000254625B100BF2846FEF740FF00BF00BF7D
:1083E000684603F099FE044600BF254625B100BF4C
:1083F0002846FEF733FF00BF00BF38BDF8B505467D
:108400000E4600BF00960D4803886A4629460C4870
:1084100000F018F80446082C0CD0132C0AD0052CB8
:1084200008D000BF274627B100BF3846FEF716FF29
:1084300000BF00BF132CE5D0F8BD0000002B0020CA
:10844000E42A00202DE9F04186B00446884617460C
:108450001D4600BF1CB90E2006B0BDE8F08100BF6C
:1084600001AA29466069FFF783F9064600BF304636
:1084700000B1F1E700BF4FF6FF70854201D00198CF
:1084800008B90520E8E70198007808B90820E3E773
:108490003888F42801DD0720DEE7002002900390F1
:1084A00004900590A088ADF80800CDF814800497DA
:1084B00001208DF80A0002A92846AEDFCCE70000B3
:1084C00070B58EB004460E463F4B0FCB09AD0FC5BD
:1084D00000BF14B90E200EB070BD00BF00BF0EB9B2
:1084E0000E20F8E700BF3068A061214609A862DFCE
:1084F000054600BF284600B1EDE700BF20788DF8A3
:1085000036000A20ADF83400A21C0DA90120A8DF16
:10851000054600BF284600B1DDE700BF202101A8C5
:10852000FDF7DBFF0C20ADF8040020788DF8060085
:10853000F420ADF808000120ADF80A008DF8100015
:108540009DF8110020F0080008308DF811009DF80A
:10855000110020F00400001D8DF8110001208DF89D
:1085600015008DF81600608804F10C0201A900F0D6
:1085700021FE05460DB12846ADE7202101A8FDF7F3
:10858000ACFF0B20ADF8040020788DF80600F42035
:10859000ADF808000120ADF80A008DF810009DF834
:1085A000110020F0100010308DF8110001208DF81E
:1085B00015008DF816008DF817006088221D01A99E
:1085C00000F0F8FD87E70000ECFD020070B50446FE
:1085D0000D4605B104B970BD2E462088102804D080
:1085E000502807D057280FD109E02146304604F023
:1085F000CBFD0AE02146304605F09EF805E0214615
:10860000304604F0A9FF00E000BF00BF00BFE2E772
:1086100001460148405C7047A4FD020010B50146C8
:10862000094B585C00BF4FF0A044234600BFD3F86D
:108630001045C44004F001040CB1012000E000200A
:10864000024682F0010010BDA4FD02007CB50024AA
:108650000DE00848055D03260020009033460246E1
:1086600001460190284602F032FE00BF641C042C33
:10867000EFD37CBDA4FD020010B5044604F0010058
:1086800008B100F04BF804F0020008B1FFF7DEFF7C
:1086900010BD000010B502460949885C00BF4FF0CC
:1086A000A0442146D1F80435012484409C43C1F8FC
:1086B0000845012484401C40C1F80C4500BF10BD92
:1086C000A0FD020010B504460249085D012102F038
:1086D000F4FE10BDA0FD020010B504460249085D7D
:1086E000002102F0EAFE10BDA0FD020010B5014617
:1086F000094B585C00BF4FF0A044234600BFD3F89D
:108700000445C44004F001040CB1012000E0002045
:10871000024682F0010010BDA0FD02007CB50024DD
:108720000CE00948055D0020009003460122114637
:108730000190284602F0CBFD00BF641C042CF0D34E
:1087400000F004F87CBD0000A0FD020010B500247C
:1087500003E02046FFF7B6FF641C042CF9D310BDDC
:1087600010B5002403E02046FFF7B6FF641C042C7C
:10877000F9D310BD02464FF0FF30002106E0054B53
:108780005B5C934201D1084602E0491C0429F6D300
:1087900000BF7047A4FD020070B505460C460026D8
:1087A0000648056014B1204605F0CAFF0448006879
:1087B00010B9FEF70DFC0646304670BDD82B0020E0
:1087C000DC2B002010B5002000F0BCFB044600BFED
:1087D0001CB1062C01D0204610BD00BF012000F0C6
:1087E000B1FB044600BF1CB1062C01D02046F3E7C4
:1087F00000BF0020F0E700002DE9F04106460F46DB
:108800004FF0000800243046FFF7B4FF0446042C64
:108810003ED20FB3012F02D0022F38D130E004EB4B
:108820004400214911F8008004EB440008444078DA
:1088300050B11E4A4FF480411D480068FEF79CFD70
:1088400005460DB91948067004EB44001649084462
:108850008078184908551AE015480068FEF7A7FD0A
:108860001448005D04EB44010F4A114489788842A2
:1088700005D104EB44001146084490F8028006E05C
:1088800004EB44000849084490F8018000BF00BF91
:10889000B8F1000F06D00848006818B140460649F4
:1088A00009688847BDE8F08178350020D02B00208A
:1088B000B0FD0200D12B0020CC2B002010B50446C7
:1088C000042C03D22046FFF7A9FE10BD0020FCE7D0
:1088D00070B50546281F0E287BD2DFE800F06991AD
:1088E000917B9191669191910708090A00BF00BFA1
:1088F00000BF4548007800282AD00020424908706F
:1089000042490860FFF722FF06F06AFC044600BFF8
:10891000264626B100BF3046FEF7A0FC00BF00BFD0
:10892000122002F0A9FD3A493A4A891AC9080322DD
:1089300042EA014038A103F08DF83549354A891AD9
:10894000C908032242EA01403CA103F083F82BE06E
:1089500001202D49087000202C490860FFF700FF16
:10896000C82006F025FC044600BF264626B100BFFD
:108970003046FEF773FC00BF00BF122002F07CFD02
:108980002349244A891AC908032242EA014022A144
:1089900003F060F81E491F4A891AC908032242EAF7
:1089A000014030A103F056F82BE005F06EFE28E000
:1089B00013213648008876DF0446082C08D000BF13
:1089C000264626B100BF3046FEF748FC00BF00BF78
:1089D00017E015E02D4800884FF6FF7188420ED150
:1089E0002B48FFF791F80446082C08D000BF264614
:1089F00026B100BF3046FEF731FC00BF00BF00E0EB
:108A000000BF00BF70BD0000282B0020642B002099
:108A1000D0090300600903006273705F6576656EBC
:108A2000745F68616E646C65722053594E435F5089
:108A3000494E5F5345540D0A0000000053746F7097
:108A400070696E672073796E6320626561636F6E13
:108A5000207472616E736D697373696F6E210D0A94
:108A6000000000005374617274696E672073796E40
:108A70006320626561636F6E207472616E736D69ED
:108A80007373696F6E210D0A00000000002B002037
:108A9000002D002030B503460020042B23D2012AEC
:108AA00007D1012903D103F10E04E4B200E0002450
:108AB000224679B1012902D0022911D104E003EB49
:108AC00043040A4D2A550DE003EB4304074D2C44A3
:108AD000627007E003EB4304044D2C44A27001E0F4
:108AE000072000BF00E0072030BD000078350020DF
:108AF00070B5044600250548007800F0010018B163
:108B0000204600F05BF80546284670BDC42B0020C7
:108B10002DE9F04105460F4600241F4805601F4817
:108B2000076005F0020000B3002606E001221146AE
:108B30003046FFF7AFFF0446761C042E01D2002C0E
:108B4000F4D034B940F2333204211548FEF7D0FA9C
:108B5000044614B9FEF7B6FA04462CB9114A0021AE
:108B60001148FEF7C3FB044600BF05F0010080B1C9
:108B70000120FFF781FD2CB90C4A00210C48FEF7BB
:108B8000B5FB04462CB90B4A01210B48FEF7AEFB9E
:108B900004462046BDE8F081C42B0020CC2B0020E9
:108BA000B4FD0200A9900200B0FD0200C5A50200BC
:108BB000A8FD0200B9700200ACFD02002DE9F047EB
:108BC000044600260025DA48007820B10020D84964
:108BD000087001F0E3FC182C7ED2DFE804F00C16DC
:108BE000174A7EB2F6F4F3F2F1F0EFEEEDECEBEAB9
:108BF000E9E8E7E6E5E401F0D1FCCE480068FEF7DD
:108C0000D6FB0646CC4804708DE100BF0020FFF77C
:108C10006DFD58B10020FFF755FD022C02D14FF435
:108C2000E16001E04FF47A60054609E00020FFF7BB
:108C300053FD022C01D1C82001E04FF4C870054655
:108C4000BD4804704FF40040A5FB00104FF47A7348
:108C5000CF1840F100015A0000233846FDF7D0FB41
:108C6000814600224946B3480068FEF785FB064668
:108C700059E10020FFF73AFD58B10020FFF722FD2F
:108C8000032C02D14FF4487001E04FF47A6005469E
:108C900009E00020FFF720FD032C01D1C82001E0EE
:108CA0004FF4C8700546A44804704FF40040A5FB7B
:108CB00000104FF47A728F1840F100015200002327
:108CC0003846FDF79DFB81460022494699480068D9
:108CD000FEF752FB064626E124E10020FFF706FDE1
:108CE00058B10020FFF7EEFC042C02D14FF47A605B
:108CF00001E04FF47A6005460AE00020FFF7ECFC43
:108D0000042C02D14FF4C87001E04FF4C87005463E
:108D1000894804704FF40040A5FB00104FF47A73AB
:108D2000CF1840F100015A0000233846FDF768FBD8
:108D30008146002249467F480068FEF71DFB064633
:108D4000F1E00020FFF7D2FC50B10020FFF7BAFCA1
:108D5000052C01D1C82001E04FF47A60054609E0F6
:108D60000020FFF7B9FC052C01D1C82001E04FF429
:108D7000C8700546704804704FF40040A5FB002001
:108D80004FF47A73D71840F100015A000023384697
:108D9000FDF736FB81460022494666480068FEF72B
:108DA000EBFA0646BFE0B8E0B6E0AAE0A1E098E042
:108DB00092E05FE05DE05BE059E057E051E042E0C7
:108DC00033E024E015E00EE0FFE70020FFF762FC4F
:108DD00059480470002240F2666156480068FEF768
:108DE000CBFA06469FE00020FFF776FC524804705D
:108DF00099E001204E490870FFF74CFC002240F238
:108E000066614C480068FEF7B7FA06468BE0012021
:108E100047490870FFF73EFC00224FF400514548D7
:108E20000068FEF7A9FA06467DE001204049087077
:108E3000FFF730FC002240F266613E480068FEF712
:108E40009BFA06466FE0012039490870FFF722FCC3
:108E500000224FF4005137480068FEF78DFA0646AD
:108E600061E0FFF77DFC344804705CE000BF00BFA8
:108E700000BF00BF31480068FEF799FA0646C4F10A
:108E8000110515B30EBB012D18D9A8B2C82148434E
:108E90004FF4004180FB01104FF47A728F1840F1BB
:108EA0000001520000233846FDF7AAFA814600224D
:108EB000494622480068FEF75FFA06460220FFF79F
:108EC0000BFC01201E49087005E00220FFF7FAFBA9
:108ED00000201B49087026E001F060FB1648047072
:108EE00021E001F05BFB0020FFF7F6FB1248047065
:108EF00019E001F053FB0120FFF7EEFB0E48047070
:108F000011E001F04BFB0020FFF7E6FB0120FFF72B
:108F1000E3FB0948047006E000BFFFF721FC0648A8
:108F2000047000E000BF00BF3046BDE8F0870000DD
:108F3000C12B0020A8FD0200C02B0020ACFD0200C8
:108F4000C82B002010B504460121204606F0D4FEAF
:108F500010BD00002DE9FC4704460D461646A71C2F
:108F60004FF001080020019001A8FEF713FB3048E4
:108F7000006828602E4800682D494968411A2C482D
:108F80008068401CA0EB010915E00121294801F08F
:108F9000B2FD01F04FFB82465146264801F0ABFD81
:108FA0002348006822494968411A21488068401CCA
:108FB000A0EB010900BF4F45E7D8B8F1000F30D052
:108FC0000021009176B1009921F00301491C009124
:108FD000009921F00401091D0091009964F38911A1
:108FE00000910DE0009921F00301891C0091009986
:108FF00021F00401091D0091009964F39F51009133
:109000000B4909680A4A92681140094A0C3202EB7E
:109010008100009901600649096839440C3A1160E1
:1090200000BF9DF80400FEF7BBFA4046BDE8FC8790
:10903000C0390020DC3D002070B504460D460A2DE5
:1090400003D10D212046FFF7F7FFA168481CA0605F
:1090500020684554D4E90110884202D3204602F02A
:1090600030F870BD0448406803490968884201D15E
:10907000012070470020FCE7C03900200246002193
:1090800008E0074B1B6803EBC1000378934200D153
:109090007047491C034800788142F2DB0020F7E763
:1090A000102C0020142C002010B50446207802213A
:1090B000FFF7A2FB10BD000038B50E490320FFF7F3
:1090C00027FD044600BF254625B100BF2846FEF710
:1090D000C5F800BF00BF69460020FFF75DFB0446EE
:1090E00000BF254625B100BF2846FEF7B7F800BFF0
:1090F00000BF38BDD18802004FF0FF31054A42F869
:109100002010082804DBFF23A0F10801503253543B
:1091100070470000883600200146024850F82100C0
:1091200070470000883600202DE9F04F03460C46BA
:109130004FF0FF390AB1002000E0082084460AB150
:10914000082000E00C208046614624E0154850F8D5
:109150002100401CF0B91D460846274616464FFA26
:1091600080FBDFF840A00AF1300A0AF805B0DFF80A
:1091700034A04AF820704EB94FFA85FBA0F1080AD6
:10918000DFF820E00EF1500E0EF80AB000BF4FFAE3
:1091900081F902E0491C4145D8D300BF4846BDE8EB
:1091A000F08F000088360020014601484056704785
:1091B000B836002070B590B006460C461546A0782B
:1091C00018B901208DF80E0002E0A0788DF80E008D
:1091D0002088ADF80C0000200290607C02A905F008
:1091E000F5F9A07C0DF1090105F0F0F9E07B08B17B
:1091F000012000E000209DF80A1060F3C3018DF803
:109200000A10207C08B1012000E000209DF80A101F
:1092100060F304118DF80A10207B08B1012000E0F2
:1092200000209DF80A1060F300018DF80A10207DDF
:1092300008B1022000E001209DF80A1060F342010D
:109240008DF80A101C2109A8FDF747F9607BC0F3CF
:10925000001018B9607BC0F34010F8B100200090F6
:10926000E07C0DF1010105F0B1F900BF9DF80000AF
:1092700020F00F00401C8DF800009DF8000020F049
:10928000F00010308DF8000000BF9DF8020020F0C3
:109290000600801C8DF80200CDF838D0607B8DF878
:1092A0002400A07B8DF82500142104A8FDF715F9F2
:1092B00003A8049002A80590A088ADF81C00A0683F
:1092C00020B1E088ADF81800A0680890A0690028D7
:1092D00049D000200190A0690088ADF82C00A06959
:1092E0004088ADF82E00A06940680A9001A80D9052
:1092F000A169087B01A905F069F9A169487B0DF115
:10930000050105F063F9A069807A08B1012000E049
:1093100000209DF8061060F3C3018DF80610A069C7
:10932000C07A08B1012000E000209DF8061060F32B
:1093300004118DF80610A069007A08B1012000E040
:1093400000209DF8061060F300018DF80610A0695A
:10935000807B08B1022000E001209DF8061060F338
:1093600042018DF80610E06908B1E0690C902B46C7
:1093700004AA09A93046AADF10B070BD70B5054631
:109380000DB9094C01E0084C083409E0204601F011
:10939000FEF8064606B904E028467168884700BF13
:1093A000F4E700BF70BD00007C36002010B5044615
:1093B0002CB90120064948700020FFF7DFFF012C7F
:1093C00004D1012002498870FFF7D8FF10BD0000CA
:1093D000743600202DE9F047024613468C46D3E947
:1093E0000245DCE90267B6EB040877EB050002D31F
:1093F0000120BDE8F0870020FBE7014688780128BE
:1094000005D191F82000012801D100207047886A19
:10941000042802D0486A042801D10020F6E7012080
:10942000F4E733B58BB00546002000900C9878B176
:1094300000240BE021460CA801F031FB28B1009A72
:10944000501C009001A820F81240641C142CF1D389
:109450002C2269462846FDF727F80DB030BD01469D
:109460000888062808DB0888B0F5486F06DD0888FC
:109470004FF6FF72904201D00720704748880628B7
:1094800008DB4888B0F5486F06DD48884FF6FF7264
:10949000904201D00720F0E708884FF6FF72904213
:1094A00008D04888904205D008884A88904201DD5B
:1094B0000720E2E70020E0E72DE9F04107460D46EE
:1094C000144698462088801D404502D90C20BDE8EE
:1094D000F0813846FFF7C3FF064600BF304600B1B3
:1094E000F5E700BF0520218868542088401C2080B3
:1094F0001220218868542088401C2080228851191D
:10950000388806F033FA21880844208022885119CF
:10951000788806F02BFA2188084420800020D6E7BE
:1095200010B5044600BF2046FDF798FE00BF10BDF1
:1095300030B587B01C216846FCF7CFFF00200090B3
:109540004FF4A03001904FF4F020029003208DF8EA
:109550000C000020ADF80E008DF8100009480590B1
:10956000094806906846FEF7AFFB044600BF254653
:1095700025B100BF2846FDF771FE00BF00BF07B050
:1095800030BD0000BDD0020021950200F8B50546AF
:109590000C46607A88B9207A10B91048476801E013
:1095A0000E4887682A4639466068FDF7E5FE06469C
:1095B00016B1304604F0AAFE0EE0002020720748E3
:1095C000406948B101208DF80000ADF80250034811
:1095D00041696846884700BFF8BD0000DC350020BF
:1095E00010B5012200210846FFF754FA044600BFD7
:1095F0001CB1072C01D0204610BD00BF072202215C
:109600000120FFF747FA044600BF1CB1072C01D028
:109610002046F1E700BF042202210020FFF73AFABA
:10962000044600BF1CB1072C01D02046E4E700BF70
:109630000020E1E72DE9FF4105460C46002002909D
:109640000390ADF80840ADF80A40009001906A46DA
:1096500002A9284690DF0646002E32D0304602F09E
:1096600057FF074619491A4A891AC908012242EACE
:1096700001403B462A46174902F002FABDF80000B5
:1096800010B9BDF8020068B1BDF80230BDF8002085
:109690000E490F4FC91BC908012747EA01400EA117
:1096A00002F0EEF9BDF8040058B1BDF804200749F6
:1096B000074BC91AC908012343EA0140164902F0C1
:1096C000D3F9304604B0BDE8F0810000680903001A
:1096D00060090300B001030054686520726571756C
:1096E00065737465642054582F5258207061636B01
:1096F0006574206C656E67746820697320746F6F81
:10970000206C6F6E672062792025752F2575206F7C
:1097100063746574732E0000FC0103002DE9F041B1
:109720008046002414E01248006800EBC405287845
:1097300003F08EF807466878012800D100E0002089
:10974000784080F001062878314600F023FB641C45
:10975000084800788442E6DB0748D0E9001000237F
:1097600059405840014301D005F0E0FABDE8F081CE
:10977000102C0020142C0020202C002010B50021DB
:10978000034801F0D9F9044684F3100010BD00002D
:10979000DC3D002070B505460C464FF4803000FAE1
:1097A00004F1284600F0DCFA70BD70B505460C46A1
:1097B0004FF4A07000EB840086B23146284600F0DA
:1097C00061FB70BD2DE9F04704460D4616461F4665
:1097D0004FF4803000FA05F84FF4A07000EB8500DC
:1097E0001FFA80F926F07F464146206802F0AAFB66
:1097F0004146206802F09AFB4946206802F08CFB43
:1098000032462946206802F077FB4146206802F084
:1098100090FB1FB14146206802F097FBBDE8F0873E
:1098200010B50446206802F06CFB10BD2DE9F0472E
:1098300004460D46174660792F4941F8207060793B
:109840002E4901EBC000007968B108262C492D4A49
:10985000891AC908022242EA01402BA102F0FAF853
:109860003046BDE8F08729882068C0F8081500BF99
:1098700094F90420AB781046194600280CDA4FEA18
:10988000417C4FEA1C69DFF8A4C000F00F08A8F182
:1098900004080CF8089007E04FEA417C4FEA1C6886
:1098A000DFF88CC00CF8008000BF00BF94F9040002
:1098B00000BF00F01F02012191404209920002F115
:1098C000E022C2F8001100BF00BF012061790B4AFD
:1098D00002EBC10108716079114641F83040002661
:1098E0000749084A891AC908032242EA014011A11E
:1098F00002F0B0F83046B4E7682C00206C2C002051
:10990000B80903006009030052544320696E737460
:10991000616E636520616C726561647920696E694E
:109920007469616C697A65642E00000018ED00E0CE
:1099300000E400E05254433A20696E697469616C36
:10994000697A65642E00000010B5014691F90400A3
:1099500000F01F0301229A40024B440943F82420DF
:1099600000BF10BD00E200E070B505460C4622467F
:109970000221284600F000FA70BD10B504464FF4ED
:109980008271204600F07EFA10BD10B50446002119
:10999000206802F0E2FA10BD10B5044604212068E8
:1099A00002F0DBFA10BD2DE9F84F04460D461646CD
:1099B00099464FF4803000FA05FB4FF4A07000EB9D
:1099C000850080B2009026F07F465946204600F080
:1099D000C7F9206802F095FA0746206800F5A861EB
:1099E00051F825108A463A462946206802F084FA42
:1099F0002068009902F090FA3946504605F0F0F8D8
:109A0000012806D1102002F03BFE2068009902F0E8
:109A100083FA206802F075FA07463946304605F0A9
:109A2000DFF880465946206802F083FAB8F1010F4A
:109A30000FD1721C2946206802F05EFA102002F055
:109A40001FFE206802F05DFAB84227D00D20BDE865
:109A5000F88F32462946206802F04EFA206802F05C
:109A600050FA0746701E394605F0BAF880466FF086
:109A70007F40A0EB0900404501D20D20E7E7B8F197
:109A8000000F0BD1721C2946206802F035FA2068BD
:109A900002F037FAB84201D00D20D8E7012259462A
:109AA000204600F069F90020D1E700001348007853
:109AB000062820D11148001D007800F00F00D0B911
:109AC0000E480830007800F0F000302801D1012065
:109AD00070470A480830007800F0F000402801D1B3
:109AE0000120F5E705480830007800F0F000502824
:109AF00001D10120ECE70020EAE70000E00F00F0D0
:109B000013480078062820D11148001D007800F085
:109B10000F00D0B90E480830007800F0F00030286F
:109B200001D1012070470A480830007800F0F000A9
:109B3000402801D10120F5E705480830007800F001
:109B4000F000502801D10120ECE70020EAE70000F6
:109B5000E00F00F013480078062820D11148001DBE
:109B6000007800F00F00D0B90E480830007800F0FF
:109B7000F000302801D1012070470A4808300078F1
:109B800000F0F000402801D10120F5E70548083039
:109B9000007800F0F000502801D10120ECE700200F
:109BA000EAE70000E00F00F00A48007806280ED12E
:109BB0000848001D007800F00F0040B90548083043
:109BC000007800F0F000302801D10120704700201B
:109BD000FCE70000E00F00F006480068062806D108
:109BE0000448001D0068062801D1012070470020AC
:109BF000FCE700003001001013480078062820D14F
:109C00001148001D007800F00F00D0B90E48083050
:109C1000007800F0F000302801D1012070470A4898
:109C20000830007800F0F000402801D10120F5E76D
:109C300005480830007800F0F000502801D10120DC
:109C4000ECE70020EAE70000E00F00F00A480078A7
:109C500006280ED10848001D007800F00F0040B91A
:109C600005480830007800F0F000302801D10120CC
:109C700070470020FCE70000E00F00F01348007878
:109C8000062820D11148001D007800F00F00D0B93F
:109C90000E480830007800F0F000302801D1012093
:109CA00070470A480830007800F0F000402801D1E1
:109CB0000120F5E705480830007800F0F000502852
:109CC00001D10120ECE70020EAE70000E00F00F0FE
:109CD0000A48007806280ED10848001D007800F0D8
:109CE0000F0040B905480830007800F0F000302837
:109CF00001D1012070470020FCE70000E00F00F0D8
:109D00000A48007806280ED10848001D007800F0A7
:109D10000F0040B905480830007800F0F000302806
:109D200001D1012070470020FCE70000E00F00F0A7
:109D30000A48007806280ED10848001D007800F077
:109D40000F0040B905480830007800F0F0005028B6
:109D500001D1012070470020FCE70000E00F00F077
:109D600070B504460D462946206802F0DFF8294602
:109D7000206802F0E7F870BD70B504460E4615463F
:109D80003146206802F0D5F81DB13146206802F056
:109D9000DCF870BDF8B505460C46284604F0E4FC36
:109DA00005286AD2DFE800F003212A393F00DCB140
:109DB0000121284604F0E8FC002000906846FDF7E9
:109DC000E9FB2A460126002730463946FCF749FBC5
:109DD0002B4AD2E9003218431143294A03C29DF8A5
:109DE0000000FDF7DDFB00BF47E00CB1022000E002
:109DF00000200146284604F0C7FC3EE044B10321A0
:109E0000284604F0C1FC0121284605F0D4FE03E0F9
:109E10000121284604F0B8FC2FE01CB90421284693
:109E200004F0B2FC29E024B10321284604F0ACFC84
:109E300022E00021284604F0A7FC0021284605F076
:109E4000BAFE002000906846FDF7A4FB2A460126D2
:109E5000002730463946FCF704FB0A46C143D0438D
:109E6000074B0CCB11401840054AC2E900109DF881
:109E70000000FDF795FB00BF00BF00BFF8BD00006C
:109E8000202C002070B505460C462868015929B1E0
:109E90002146286802F040F8012070BD0020FCE750
:109EA00070B504460D462A460021204600F00EF803
:109EB000A068401CA06070BD01468A68C868801A0E
:109EC000704701468A68C868801A704710B5836871
:109ED0000B44848823400468E35C137010BDC2689F
:109EE00083881A4003689954C268521CC260704744
:109EF00070B505460E46144624B13146284600F09A
:109F0000DDFD03E03146284600F0BAFD70BD30B5F6
:109F100004461088C01C984201D90C2030BD022094
:109F2000158848551088401C108001201588485518
:109F30001088401C108015884C551088401C1080DB
:109F40000020EBE770B504460D4640F21442115B69
:109F50000122D4F81004FDF7F7FC064606B135706F
:109F600004F13C0204F5826104F1540072DF70BD1B
:109F70003EB500BF9DF8000020F00F00401C00908F
:109F80009DF8000020F0F0001030009000BF11227A
:109F900014A168467CDF044600BF254625B100BFFA
:109FA0002846FDF75BF900BF00BF0020019002903A
:109FB0001020ADF804001820ADF806000020ADF820
:109FC00008004FF4C870ADF80A0001A87ADF044613
:109FD00000BF254625B100BF2846FDF73FF900BF69
:109FE00000BF3EBD424C455F4150505F5541525409
:109FF0005F53594E4300000070B505460C4660881B
:10A000000D490988884215D1208840F67721884279
:10A0100010D1A088C01E094908800949094A891A37
:10A02000C908032242EA014004490B880A8806A1B4
:10A0300001F026FD70BD0000002B0020022B002047
:10A04000D00903006009030044617461206C656EEF
:10A050002069732073657420746F20307825582828
:10A060002564290070B50E490E4800F018FE04461C
:10A0700000BF254625B100BF2846FDF7EFF800BF19
:10A0800000BFF721074800F0FBFD044600BF25464E
:10A0900025B100BF2846FDF7E1F800BF00BF70BD45
:10A0A000F99F0200E02C002070B50B48FFF7B8FBC9
:10A0B0000A4B0CCB841843F10005094903C9201A47
:10A0C00075EB010004D24FF08073E41845F10005F0
:10A0D0002046294670BD0000282C0020382C002086
:10A0E000402C00202DE9F04104468846E0B2FEF7FE
:10A0F000C5FF0546287802F0ABFB074668780128C3
:10A1000000D100E00020784080F001064EB1064802
:10A11000D0E90010002359405840014301D104F018
:10A1200005FEBDE8F0810000202C002010B501F0F4
:10A1300005FB08B901F096FE10BD000002460021A3
:10A140000CE001EB8100074B33F82000904204D172
:10A1500001EB810003EB80007047491C0029F0D01F
:10A160000020F9E7C83500202DE9FC5F83460E4644
:10A1700091461F46DDE90C45002E01DA704200E0F1
:10A18000304682464FF0010803E09AFBF9FA08F1E5
:10A190000108CA45F9DA474500D9B84634B1002E5E
:10A1A00003DB05F00400042800D1641E05F0020062
:10A1B00000B167B105F0010048B944B104E0641E84
:10A1C00020215846FEF738FF0CB1A045F7D3002EEA
:10A1D00005DA76422D215846FEF72EFF07E005F0FE
:10A1E0000400042803D12B215846FEF725FF05F073
:10A1F000020002280DD105F0010050B94FB944B159
:10A2000004E0641E30215846FEF716FF0CB1A0454D
:10A21000F7D33B464A4631465846CDE9004505F05E
:10A22000ABFBBDE8FC9F000070B5054609492868F6
:10A2300002F0A8F9286802F033FA0446204600F03C
:10A240001F0201219140044A430942F8231000BF34
:10A2500000BF70BD8402020080E100E070B50546D9
:10A260000949286802F0BFF9286802F01DFA04467F
:10A27000204600F01F0201219140044A430942F8A0
:10A28000231000BF00BF70BD1003420080E100E05A
:10A290002DE9F04104460E464FF48E71206802F01D
:10A2A00065F94FF4A271206802F060F9174920683F
:10A2B00002F06BF9206802F0F3F9054637462846AC
:10A2C0003946002809DA4A074FEA126C104A00F0B2
:10A2D0000F031B1F02F803C003E04A07130E0D4AC9
:10A2E000135400BF00BF206802F0DAF90546284683
:10A2F00000F01F02012191404209920002F1E02288
:10A30000C2F8001100BF00BFBDE8F081800002006C
:10A3100018ED00E000E400E02DE9F04104460E46AF
:10A320004FF48871206802F051F94FF49071206861
:10A3300002F04CF94FF49271206802F047F94FF4A3
:10A34000A271206802F042F94FF4AC71206802F06B
:10A350003DF91849206802F049F9206802F0A4F993
:10A360000546374628463946002809DA4A074FEAA3
:10A37000126C114A00F00F031B1F02F803C003E028
:10A380004A07130E0D4A135400BF00BF206802F0A5
:10A390008BF90546284600F01F0201219140420931
:10A3A000920002F1E022C2F8001100BF00BFBDE838
:10A3B000F08100001003420018ED00E000E400E02E
:10A3C00030B5024600201378C3F38003D3B113786D
:10A3D00003F00303012B02D0022B10D107E01388F6
:10A3E000C3F383139B1C0C6823440B6008E00B68C9
:10A3F0000225146805EB945423440B6000E000BF71
:10A4000000BF012030BD2DE9F04704460E469046BE
:10A41000002722E0384602F089F80546384602F067
:10A420008CF881462046294642580AB1012200E0B4
:10A43000002282B14846D4F80413014009B1012139
:10A4400000E0002139B12946204602F07BF8284679
:10A45000D6E900219047781CC7B24745DADBBDE852
:10A46000F08700002DE9F04781460C4616464FF470
:10A4700080374FF4A078002520E03946484601F0A7
:10A4800067FDA8B14146484601F056FD80B1394606
:10A49000484601F048FD3946484601F050FD414626
:10A4A000484601F032FDE8B21B4A52F824108847B2
:10A4B0007F0008F104001FFA80F86D1CB542DCD360
:10A4C0004FF480780121484601F042FD68B14146D1
:10A4D000484601F031FD40B14146484601F015FDC6
:10A4E0000D4850F82410042088474FF48278022148
:10A4F000484601F02DFD68B14146484601F01CFD7B
:10A5000040B14146484601F000FD034850F8241090
:10A5100005208847BDE8F087042C00202DE9F04194
:10A520000446A08800EB020CB4F80480904501DDDD
:10A53000104600E0A088A8EB0005E088C618B4F833
:10A540000680984501DD184600E0E088A8EB00078A
:10A550004888B4F80080404504DB4888B4F802809D
:10A56000404502DD0020BDE8F0818888A84202D382
:10A570008888604501D90020F5E7C888B84202D331
:10A58000C888B04201D90020EDE70120EBE7014681
:10A59000086808B102680A607047000010B50848F2
:10A5A000007850B1002405E0022C02D02046FEF7CE
:10A5B00089F8641C042CF7D301E0FEF7C7F810BD3E
:10A5C000C82B002010B504460448007800F00100B4
:10A5D00018B103480078FEF7F1FA10BDC42B002033
:10A5E000C02B002010B502F03BF800200149887014
:10A5F00010BD000074360020F72101801721418032
:10A600000021017141711B218171C171704770B5C9
:10A610004FF48041002001F0A1FA044600BF254616
:10A6200025B100BF2846FCF719FE00BF00BF01F0AE
:10A6300071F870BD2DE9FF4100272E4800F054FA53
:10A640002C48001F00F050FA2B48406803902A481D
:10A6500085680398284028490C3101EB800800BF29
:10A6600003A94046FFF7ACFE30B1039828402249C9
:10A670000C3101EB800800E000E0F1E700BF0024AE
:10A680000AE00398411C284003911B490C3151F802
:10A6900020004DF82400641C022CF2D3009800F036
:10A6A000030001280DD0022814D1BDF80670042142
:10A6B000009801EB9050401E039901EB900003902D
:10A6C00009E0BDF806700098C0F3831003990844B0
:10A6D000039000E000BF00BF0648001F00F0FDF936
:10A6E000064616B1044903984860384604B0BDE8F0
:10A6F000F0810000D83D0020C0390020FFF787FF1F
:10A7000004F024FBFEF7D8FC03F076F9FDF74BFECE
:10A71000FFF72EFCFFF7A6FC03F0A4FEFCF782FC7B
:10A72000FEF706FF04F0F8F8122001210A46002384
:10A730001C461D4600BF4FF0A0473E4641EA420777
:10A7400047EA830747EA042747EA054C06F5E0672E
:10A7500047F820C000BF00BF00F08EFE0849094A3C
:10A76000891AC908032242EA014007A101F072F9DF
:10A77000FCF790FC03E0FFF7D9FCFDF78BFDFAE74F
:10A78000D009030060090300424C452054656D70F8
:10A790006C617465206578616D706C65207374619F
:10A7A000727465642E0000002DE9F04105460E46E6
:10A7B00014469846A888871C2088801C3844404549
:10A7C00002D90C20BDE8F081FE2F01D90C20F9E759
:10A7D000781C218870542088401C2080FF2021880C
:10A7E00070542088401C208022889119288805F008
:10A7F000BDF8218808442080A88800280DDDA868BD
:10A8000008B90720DEE7AA8823889819A968FBF70A
:10A810004BFE2088A988084420800020D2E72DE93B
:10A82000FF4F87B0044691461E46A2462546BAF819
:10A8300006009AF805104843001F0690BAF806B0C3
:10A84000301DB0FBFBF00590301DB0FBFBF10BFBA6
:10A8500011000490D9F8000081190698814202D9AC
:10A860000698801B01E0D9F800000746C9F800707F
:10A8700003E02D680598401E059005980028F8D142
:10A8800003900498ABEB0008B84501D9384600E0C6
:10A890004046804623E00399089808440290281D0A
:10A8A000049908440190149828B14246DDE901104A
:10A8B000FBF7FAFD04E04246DDE90101FBF7F4FD98
:10A8C000002004902D68A7EB0807039840440390EC
:10A8D000BB4501D9384600E05846804600BF002FEE
:10A8E000D9D10BB0BDE8F08F70B503460C469CB1D2
:10A8F00001F060F9054600220AE0084800EB8201F9
:10A9000008881E68B04202D11A60002070BD521C37
:10A91000AA42F2D30520F9E70020F7E70000000083
:10A920002DE9F84F05460F46144698462878012829
:10A9300004D1687810B90720BDE8F88F2088801C02
:10A94000404508D82878012807D12088801C6978DC
:10A950000844404501D90C20EEE72088A8EB000010
:10A96000801E86B200962188891CC81969467DDF41
:10A97000814600BF484600B1DEE700BF28780228C4
:10A9800004D06878BDF80010884206DBBDF80000EE
:10A99000B04202DC4FF0090A0BE04FF0080A2878B9
:10A9A000012805D16878B04202DC6878009000E0A8
:10A9B0000096BDF80000FE2801D90C20BCE7BDF8C8
:10A9C0000000401C218878542088401C208020886A
:10A9D00007F800A02088401C20802088BDF80010C7
:10A9E000084420800020A7E710B5044609B90E20CE
:10A9F00010BD92FBF3F003FB102008B10920F7E72C
:10AA0000216000206060A060A281E38100BFEFE7C9
:10AA100070B504460D4629462046FBF709FC18B1DF
:10AA20002A882168881870BD0020FCE770B50546AB
:10AA30000C4620886188884204D12846FBF73AFCFE
:10AA4000012070BD0020FCE770B504460D46294684
:10AA50002046FBF712FC18B16A882168881870BD7F
:10AA60000020FCE770B505460C46208861888842C6
:10AA700004D12846FBF7F8FB012070BD0020FCE75D
:10AA800070B505460C4604F01F0301229A40D143DD
:10AA9000620905EB820000F039F8064670BD10B57A
:10AAA0000246480952F8200001F01F040123A34088
:10AAB000184008B1012010BD0020FCE770B5054624
:10AAC0000C4604F01F03012202FA03F1620905EBB0
:10AAD000820000F03CF8064670BD10B50446002127
:10AAE000204600F01EF810BD10B504460121204696
:10AAF00000F02DF810BDF8B504460D466A4629460B
:10AB00002046FBF72CFC06460098F8BDF8B5044635
:10AB10000D466A4629462046FBF707FC0646009884
:10AB2000F8BDF8B504460D466A4629462046FBF7AF
:10AB3000FCFB06463046F8BDF8B504460D466A46AD
:10AB400029462046FBF7D8FB06463046F8BDF8B547
:10AB500004460D466A4629462046FBF7D9FB0646C1
:10AB60000098F8BDF8B504460D466A4629462046C9
:10AB7000FBF702FC06460098F8BDF8B5044600262F
:10AB8000002000906846FCF705FD206800686168B9
:10AB9000884215D920680068401E2268106001783C
:10ABA000204600F033F80646207A21680978401ADA
:10ABB000C5B220680079A84201DA2068057100BF9B
:10ABC0009DF80000FCF7ECFC3046F8BD0246D0686A
:10ABD000081A138AB0FBF3F0C0B27047F8B5044608
:10ABE0000D462E46002000906846FCF7D3FC314607
:10ABF0002046FFF7EBFF21680A68511C23681960A3
:10AC000010709DF80000FCF7CBFCF8BD0246138ADB
:10AC1000D06801FB0300704710B5014600BF09B9B9
:10AC20000E2010BD00BF087A0B79C01AC2B2D1E95C
:10AC30000030186005E008680368581C0C68206044
:10AC40001A70101EA2F10103DAB2F4D10B68187168
:10AC500000BFE6E730B502460B46D40802F0070213
:10AC6000012090401D5D284030BD30B50B46C20824
:10AC700000F007009C5C012585402C439C5430BDAE
:10AC8000024600BF0AB90E20704700BF172901DB3A
:10AC9000F72901DD0720F7E711800020F4E770B500
:10ACA00004460E4600BF0CB90E2070BD00BF2661E1
:10ACB000F720208060801B202071002505E0A11D69
:10ACC00001EBC500FFF798FC6D1C002DF7D00020AC
:10ACD000EBE700002DE9F047064688464546B48874
:10ACE000012C01DBBDE8F0873088242820D006DC69
:10ACF000102809D011280CD0232823D11DE03A2890
:10AD00000CD055281ED10EE03146284602F0AEFA8E
:10AD100019E03146284602F07FFB14E03146284610
:10AD200002F0E8FB0FE03146284602F07FFB0AE024
:10AD30003146284602F0FCFA05E03146284602F08A
:10AD400021FB00E000BF00BFA81D00EBC40000799C
:10AD500018B3A81D30F834102046A5DF074657B9B0
:10AD60000021A81D00EBC40001710121A81D00EB0A
:10AD7000C400417110E0112F0ED0384601F0C8FB1D
:10AD800081460749074A891AC908012242EA014057
:10AD90004A4605A100F068FE00BF00BFA2E7000020
:10ADA000680903006009030073645F626C655F6794
:10ADB000617474635F65786368616E67655F6D7405
:10ADC000755F726571756573742829207265747575
:10ADD000726E65642025732E00000000024600BFDD
:10ADE0000AB90E20704700BF00BF1078DE2801D0DE
:10ADF0000820F7E700BF51800020F3E7024600BFBC
:10AE00000AB90E20704700BF00BF09B90E20F9E74C
:10AE100000BF1078DE2801D10820F3E708685060F1
:10AE2000DE2010704FF6FF7050800020EAE770B50A
:10AE300004460E4600BF06B970BD00BF00BF04B98E
:10AE4000FAE700BF354600BF2878DE2800D0F3E7D8
:10AE500000BFA0886988884202D1284604F095FE88
:10AE60002088012806D0022809D0112811D05128A5
:10AE700017D109E0211D284602F022FC12E0211D15
:10AE8000284602F01CFC0DE0211D284602F0C2FB02
:10AE900008E0A0886988884202D14FF6FF70688078
:10AEA00000E000BF00BF00BFC6E701464FF0804092
:10AEB000405808B1012070470020FCE708B5002287
:10AEC0004FF080410A500958009100BF08BD0000B2
:10AED0000149086070470000080300400122910703
:10AEE0000A5070472DE9F04104460CB9BDE8F081E5
:10AEF00000BF4FF47A7505B904E0054FAE01304646
:10AF0000B84700BF601E041EF3D100BFEEE700008B
:10AF100081FD020010B500240C48007808B185249A
:10AF200011E000200949886048600861C86008484D
:10AF300001F084FB044601F029FA08B901F074FB22
:10AF4000012002490870204610BD00007436002020
:10AF5000AD93020008B5002000906846FCF71AFB8C
:10AF60000748C068401E0649C8600846C06808B95E
:10AF7000FFF738FB9DF80000FCF712FB08BD00004E
:10AF8000743600202DE9F04188B004460F4615467E
:10AF900026781A4840F826501949386941F82600A1
:10AFA000787F18498855202239466846FBF77CFA95
:10AFB00004964FF0000820781249085C50B10DB19A
:10AFC000114800E0002002466946201D01F09CFE69
:10AFD00080460EE020780B49085C50B90DB10B4853
:10AFE00000E000200246694604F10C0001F032FD49
:10AFF0008046404608B0BDE8F0810000E82B002004
:10B00000EC2B0020F02B002045F6020099F4020002
:10B010002DE9F04104460D461646002720780C49DC
:10B02000085C30B132462946201D01F0ADFE0746CE
:10B030000AE020780649085C30B93246294604F116
:10B040000C0001F04BFD07463846BDE8F0810000DA
:10B05000F02B00202DE9F04104460D46164600274E
:10B0600020780C49085C30B132462946201D01F099
:10B0700027FF07460AE020780649085C30B93246C7
:10B08000294604F10C0001F0BBFD07463846BDE837
:10B09000F0810000F02B00200FB438B5044605986D
:10B0A00010B938BC5DF814FB0020009006A8009091
:10B0B0006A462046059900F012F80020009000BF73
:10B0C000EFE770B50446A06800B970BDD4E9040389
:10B0D000A268216898470020A06000BFF5E72DE92D
:10B0E000FC5F82460D4614460DB9BDE8FC9F00BFCB
:10B0F0002E786D1C06B9E1E0252E70D100274FF0A7
:10B10000010900BF2E782B2E0CD02D2E02D0302E10
:10B110000CD103E047F001076D1C0AE047F002077D
:10B120006D1C06E047F004076D1C02E04FF00009BB
:10B1300000BF00BFB9F1000FE4D14FF0000800BF1D
:10B140002A2E06D12168081D2060086880446D1CE5
:10B150000DE02E78302E01DB392E00DD07E06D1C6E
:10B16000A6F1300008EB880100EB4108E8E700BFDA
:10B170004FF0000B2E782E2E10D16D1C00BF2E78B4
:10B18000302E01DB392E00DD07E06D1CA6F130000A
:10B190000BEB8B0100EB410BF1E700BF2E7800BFFA
:10B1A0006C2E01D0682E02D16D1C2E7800E000E0DC
:10B1B000F6E700BF692E21D008DC252E6DD0582E71
:10B1C00039D0632E0CD0642E6CD116E0702E4CD08A
:10B1D000732E3ED0752E1FD0782E63D12AE065E005
:10B1E0002168081D2060D1F8009009F0FF0001904F
:10B1F00050460199FDF720FF55E000BF2168081D6A
:10B200002060D1F800905B460A2249465046CDE9BD
:10B210000087FEF7A9FF46E02168081D2060D1F8ED
:10B2200000905B460A2249465046CDE9008704F06B
:10B23000A3FB38E000BF2168081D2060D1F8009012
:10B240005B46102249465046CDE9008704F094FB46
:10B2500029E02168081D2060086801903B464246AD
:10B260005046019903F01EFB1DE02168081D206077
:10B27000D1F8009030215046FDF7DEFE782150468F
:10B28000FDF7DAFE002008210B461022CDE9001060
:10B290004946504604F070FB05E025215046FDF775
:10B2A000CBFE00E000BF00BF6D1C03E031465046FE
:10B2B000FDF7C2FE287800287FF41AAF00BF9AF885
:10B2C0000C0010B15046FFF7FCFE00BF0DE7F0B5D3
:10B2D000DDE9054500BF4FF0A0473E4641EA420781
:10B2E00047EA830747EA042747EA054C06F5E06783
:10B2F00047F820C0F0BDF0B5DDE9054500BF4FF0CF
:10B30000A0473E4641EA420747EA830747EA042747
:10B3100047EA054C06F5E06747F820C0F0BDF0B5F8
:10B32000DDE9054500BF4FF0A0473E4641EA420730
:10B3300047EA830747EA042747EA054C06F5E06732
:10B3400047F820C0F0BDF0B5DDE9054500BF4FF07E
:10B35000A0473E4641EA420747EA830747EA0427F7
:10B3600047EA054C06F5E06747F820C0F0BD1CB57C
:10B370000446002000900346012201460190204629
:10B38000FFF7CDFF1CBD1CB504460020009003460E
:10B390000122014601902046FFF7D5FF1CBD7CB578
:10B3A00005460C46002000902346024601460190C7
:10B3B0002846FFF7B4FF7CBD7CB505460C4600204F
:10B3C000009023460246014601902846FFF7BBFF46
:10B3D0007CBD1CB5044600200090034601221146A6
:10B3E00001902046FFF79BFF1CBD1CB504460020C2
:10B3F000009003460122114601902046FFF7A3FF6B
:10B400001CBD10B50A4600BF4FF0A043194601F518
:10B41000E06353F8203023F4403401F5E06343F84F
:10B42000204053F8203043EA024401F5E06343F83A
:10B43000204010BD00BF4FF0A0410A46012303FA8F
:10B4400000F1C2F80C1500BF704700BF4FF0A041DB
:10B450000A46012303FA00F1C2F80C1500BF704739
:10B46000014600BF4FF0A040024600BFD2F81005D1
:10B47000C84000F00100704700BF4FF0A0410A46ED
:10B48000012303FA00F1C2F8081500BF704700BF9E
:10B490004FF0A0410A46012303FA00F1C2F8081553
:10B4A00000BF704700BF4FF0A0410A46012303FAD6
:10B4B00000F1C2F8081500BF704710B561B900BFB0
:10B4C00000BF4FF0A0421346012404FA00F2C3F873
:10B4D0000C2500BF00BF0CE000BF00BF4FF0A04232
:10B4E0001346012404FA00F2C3F8082500BF00BF88
:10B4F00000BF10BD38B50B46074C246800940146C8
:10B5000006E05DF82140D4F810551560121D491C65
:10B51000C4188C42F5D838BDFCFD02000146014834
:10B52000084470470060004038B504462046FFF7E5
:10B53000F5FF002101602046FFF7F0FF0068009052
:10B5400000BF38BD10B504462046FFF7E7FF00688E
:10B55000012800D110BD0020FCE70000014908606F
:10B56000704700000463004070B504460E46FCF7C7
:10B57000E1F80546681C08B9284670BDE8B2E168E4
:10B58000087100BF0C48D0F8100430B90A48C0F860
:10B5900010440020E16808600BE00748D0F8100470
:10B5A000C0680068E16808600348D0F81004C0680B
:10B5B00004602846E1E70000C0390020704710B55C
:10B5C000FBF784F910BD704738B504460D460448B2
:10B5D0004023044A29460090204600F005F838BD73
:10B5E00049E30200283800202DE9F04F93B082464D
:10B5F0000E4617469846DDF87090304600F0D3FBB3
:10B6000018210DA8FAF769FF0D97CDF83880CDF80D
:10B61000489000252B46082207A9304600F0E0FBA1
:10B62000082509980A90BDF82000ADF82C00BDF857
:10B630002200ADF82E0000208DF83100079800F0B0
:10B64000030001281BD107984FEA902B0798C0F3FD
:10B65000C2008DF830000798C0F38314A2002B4677
:10B6600001A9304600F0BCFB05EB84050DA80AAB30
:10B67000224601A90090584600F0D4FA27E0079826
:10B6800000F00300022822D107984FEA905B079848
:10B69000C0F3C2008DF8300000BFBBF1080F01D22B
:10B6A000584600E0082004462B46224605A93046AD
:10B6B00000F096FB2544ABEB040B0DAB0AAA214628
:10B6C00005A800F0EDF9BBF1000FE6D100BF304650
:10B6D00000F077FB13B0BDE8F08F000010B5024614
:10B6E0000B4C04EBC203012906D0022906D0032922
:10B6F00006D0042908D105E0022007E0042005E077
:10B70000187903E0587901E0002000BF00BF10BDA8
:10B710006009030010B54FF0FF34FFF750FF04211C
:10B720000548FFF721FF044600BF01200249C96810
:10B73000487100BF10BD0000500903002DE9F04F13
:10B740008BB0FDF78FFC18B100200BB0BDE8F08F77
:10B750000020B749C1F8180400BF00BF00BFBFF305
:10B760004F8F00BF00BF00BF084640680A900846E0
:10B7700084680A9820400C3101EB800A00250026DD
:10B780000020069000BF0AA95046FEF719FEA8B196
:10B79000A748D0F8180488B9A54800680A998842D3
:10B7A00005D8A3480068A24948600020CDE70A9860
:10B7B00020409F490C3101EB800A00E000E0E2E705
:10B7C00000BF00270BE00A98411C20400A919849CD
:10B7D0000C3151F8200007A941F827007F1C022FE7
:10B7E000F1D3079800F0030002287CD10798800D60
:10B7F000059050210798B1EB905F02DD0798800D0E
:10B8000000E050208146079869F39F50079009F1A6
:10B81000080004900798C0F3C20006908548049978
:10B8200000F064FA0546002D5BD0284600F0BBFA14
:10B830003346082207A9284600F0E3FA08360A989A
:10B840002040611C081A4FEA8008C14535D9B8F17B
:10B85000000F06D00A98204075490C3101EB80009A
:10B8600001E073480C300390B8F1000F01D040465E
:10B8700000E0484600F0FF0BB8F1000F02D06C4822
:10B880000C3000E000200290B8F1000F02D0A9EBCC
:10B89000080000E00020C0B2019033465A46284616
:10B8A000039900F0AEFA5E44029828B13346284668
:10B8B000DDE9012100F0A5FA0CE00A9820405C497E
:10B8C0000C3101EB800B33464A465946284600F0BE
:10B8D00098FA00BF0598C01C0A9901EB90000A90E5
:10B8E00000BF44E0FFE7079800F0030001283ED1C5
:10B8F0000798C0F38310062803DA0798C0F3831073
:10B9000000E00620079960F3891107910798C0F3BA
:10B91000831000F102080798C0F3C20006904FEAB6
:10B920008801444800F0E2F90546FDB1284600F0E0
:10B930003AFA3346082207A9284600F062FA083688
:10B9400000270EE00A98421C20400A92384A0C3226
:10B9500002EB800133460422284600F052FA361DDD
:10B960007F1C0798C0F38310B842EBD800BFE5B343
:10B970002F48D0F81084D0F8180418B1284600F0E9
:10B9800020FA31E019E04FF0000900BFD8F80C00B0
:10B990004079012800D18146B9F1000F08D000BFDD
:10B9A000D8F80000294602684046904700BF00BF13
:10B9B000D8F80C00D0F8008000BFB8F1000FE2D139
:10B9C000284600F0FEF90020059005A8FBF7E2FDEF
:10B9D0001748D0F8180410B915490A9848609DF81E
:10B9E0001400FBF7DDFD00BF1DE0FFE71048D0F8B5
:10B9F00010840AE0C146D9F80000816848468847AB
:10BA000000BFD8F80C00D0F80080B8F1000FF1D1D9
:10BA100009490A4A891AC908022242EA014008A1D2
:10BA200000F018F800BFFDF71DFB80F001008CE668
:10BA3000C0390020040A0300D00903006009030094
:10BA40004261636B656E647320666C7573686564D0
:10BA50000000000070B504460D4600231A46294632
:10BA6000204602F0E7FE70BDF8B505460E461446C6
:10BA7000009401236A463146284602F0DBFEF8BDF9
:10BA80002DE9FC4106460F4614461D4600940195DB
:10BA900002236A463946304602F0CCFEBDE8FC81FE
:10BAA0002DE9F05F07460E4690461D46082E01D947
:10BAB000BDE8F09F95F80C90002028732946404679
:10BAC00002F07EF800240CE0B44205D23A5D1DA1DC
:10BAD0002846FFF7E1FA03E01CA12846FFF7DCFA4D
