:020000040002F8
:1060000028600020DD630200E5630200E763020010
:10601000E9630200EB630200ED6302000000000090
:10602000000000000000000000000000EF6302001C
:10603000F163020000000000F3630200F563020058
:10604000E167020035680200A16D0200F7630200FB
:10605000F7630200F7630200AD650200F763020018
:10606000596D0200716D0200896D0200F763020034
:10607000F7630200F7630200F7630200F7630200B0
:10608000F7630200C1680200F7630200F7630200D1
:10609000F7630200F7630200796902008169020078
:1060A000F7630200F7630200F7630200F763020080
:1060B000F7630200F7630200000000000000000028
:1060C000F7630200F7630200F7630200F763020060
:1060D000D9680200F7630200F763020000000000C5
:1060E00000000000000000000000000000000000B0
:1060F00000000000000000000000000000000000A0
:10610000000000000000000000000000000000008F
:10611000000000000000000000000000000000007F
:10612000000000000000000000000000000000006F
:10613000000000000000000000000000000000005F
:10614000000000000000000000000000000000004F
:10615000000000000000000000000000000000003F
:10616000000000000000000000000000000000002F
:10617000000000000000000000000000000000001F
:10618000000000000000000000000000000000000F
:1061900000000000000000000000000000000000FF
:1061A00000000000000000000000000000000000EF
:1061B00000000000000000000000000000000000DF
:1061C00000000000000000000000000000000000CF
:1061D00000000000000000000000000000000000BF
:1061E00000000000000000000000000000000000AF
:1061F000000000000000000000000000000000009F
:10620000DFF80CD000F084F9004800479D9F0200A1
:106210002860002000B583B002900091019244F202
:10622000010071466A4600F057FF03B000BD000050
:1062300030B450E8012F93B2C48923448489A34227
:1062400028BF1B1B0489A34202BFBFF32F8F00206E
:1062500007E0C3EA020340E80134002CE9D14FF023
:1062600001000A6030BC704750E8012FC2EA0242C8
:1062700040E801210029F7D1704730B450E8022FDF
:106280001FFAA2F3C488A34202BFBFF32F8F0020DE
:106290000DE0C48923448489A34228BF1B1BC2EAA2
:1062A000034340E80234002CE8D14FF001000A60BB
:1062B00030BC704750E8022FC2EA224240E8022177
:1062C0000029F7D17047034653E8022FD988B2EB73
:1062D000324F4FF0000017BF92B241EA014142EA4B
:1062E000014104E05A68B2EB324F08BF012043E895
:1062F0000212002AE8D1704730B4044654E8000F77
:106300000D4644E80053002BF8D1156030BC7047AF
:1063100030B4044654E8000F40EA010544E8005355
:10632000002BF7D1156030BC704730B4044654E8F8
:10633000000F00EA010544E80053002BF7D1156077
:1063400030BC704730B4044654E8000F80EA0105C1
:1063500044E80053002BF7D1156030BC704730B4CF
:10636000044654E8000F00EB010544E80053002BFD
:10637000F7D1156030BC704730B4044654E8000FC4
:10638000A0EB010544E80053002BF7D1156030BCA9
:10639000704770B404464FF0000054E8006F0D6879
:1063A000AE4207BF44E80023012044E800630E60CA
:1063B000002B1CBF0020F0E770BC704730B40446CF
:1063C00054E8000F88422CBF451A054644E80053A4
:1063D000002BF5D1156030BC70470000064880479F
:1063E00006480047FEE7FEE7FEE7FEE7FEE7FEE7BA
:1063F000FEE7FEE7FEE7FEE7C16A02000162020077
:106400002DE9F05F0546002092469B4688460646E9
:10641000814640241BE0284641464746224600F07C
:106420002FF853465A46C01A914110D311461846C8
:10643000224600F016F82D1A67EB01084F46224657
:106440000120002100F00DF817EB00094E41201E3D
:10645000A4F10104DFDC484631462A464346BDE844
:10646000F09F202A04DB203A00FA02F10020704756
:106470009140C2F1200320FA03F319439040704782
:10648000202A04DB203A21FA02F00021704721FA89
:1064900002F3D040C2F120029140084319467047F0
:1064A00000487047FCF5020040EA01039B0703D057
:1064B00009E008C9121F08C0042AFAD203E011F843
:1064C000013B00F8013B521EF9D27047D2B201E005
:1064D00000F8012B491EFBD270470022F6E710B5E9
:1064E00013460A4604461946FFF7F0FF204610BD42
:1064F000421C10F8011B0029FBD1801A704703468B
:1065000011F8012B00F8012B002AF9D11846704729
:10651000064C074D06E0E06840F0010394E80700F0
:1065200098471034AC42F6D3FFF76EFE80FD0200B0
:10653000A0FD020070B58C1810F8015B15F0070380
:1065400001D110F8013B2A1106D110F8012B03E00C
:1065500010F8016B01F8016B5B1EF9D12B0705D414
:106560000023521E0DD401F8013BFAE710F8013B5D
:10657000CB1A921C03E013F8015B01F8015B521E79
:10658000F9D5A142D8D3002070BD10B502460B4604
:106590000020002104E0545C0444E0B24C1CE1B251
:1065A0009942F8DBC443641CE0B210BD2DE9F04F02
:1065B00089B00027002008904FF4807007900126D2
:1065C000002412E0079804F0D7FB40B100BF7B48DD
:1065D0000068304018B1079804F0C0FB37437600DC
:1065E0000798001D80B20790641C082CEAD34FF472
:1065F000BE7004F0C1FB50B14FF4BE7004F0AEFBAE
:1066000047F0004708AA0121002004F08DFBF8B2F2
:1066100000B3012600241BE006EA0700B0B100BF6A
:10662000674850F82400C0F30420804600BF644847
:1066300050F82400C0F301408146204602F0D8FA09
:10664000054615B149464046A84700BF7600641C80
:10665000082CE1D307F0004000287DD000200690F0
:106660000590002505E04FF0FF3004A941F8250012
:106670006D1C002DF7D000BF0020069000245FE0C5
:106680005048005D0390039820F0C0094D48005722
:10669000401C002853D004A9484603F029FF0028D5
:1066A0004DD003984FEA901A484602F0A9FA804666
:1066B00002F09EFA0290029810B9BAF1030F3DD190
:1066C000BAF1030F03D105A9484603F01CFF00BF30
:1066D00000BF4FF0A041084600F5E06151F82910D5
:1066E000C1F3014800BF08A9484603F001FF8346F3
:1066F000BBF1000F02D0B8F1020F05D0BBF1000FC3
:106700001BD1B8F1030F18D1BAF1030F0FD1B8F1B3
:10671000020F01D1032000E00220019048460199B8
:1067200004F095FA0698401CC0B2069000BF02988B
:1067300018B151464846029A904700BF00BF641CFA
:10674000042C9DD3069888B34FF0010803AA0121B9
:10675000002004F0E9FA00E02DE000250BE003A89A
:1067600050F8250008A951F82510884202D04FF0B2
:10677000000802E06D1C002DF1D000BFB8F1000F41
:1067800002D00020069010E000250CE003A850F88D
:10679000250008A941F8250005A850F8250004A9FE
:1067A00041F825006D1C002DF0D000BF0698002890
:1067B0007FF462AF00BF09B0BDE8F08F0463004012
:1067C00010650040C036002000F01F0201219140FA
:1067D0004209920002F1E022C2F800117047000065
:1067E00010B54FF4807003F0AEFF80B14FF48070AD
:1067F00003F0B2FF012003F0B9FF0D48407930B932
:1068000001200B49487108460168002088474FF471
:10681000827003F098FF50B14FF4827003F09CFF38
:10682000022003F0A3FF024801680120884710BD41
:10683000FC2B002070B51B480068002831D00020D8
:10684000184908601848D0F80C0118480078012849
:1068500024D11748006800F00100F8B11548046819
:10686000204607F069FB054695B1134803F0D3FDB8
:10687000044600BF0CB1012000E00020064626B906
:1068800000BF002000F086FC00BF00BF0948046084
:106890000A480068401C0949086000BF01200249FD
:1068A000886070BD0C11004000100040742B002067
:1068B000001400400415004040FE0200682B002038
:1068C00010B5034A1068034A1168884710BD0000DC
:1068D0005C2C0020582C002010B504220021024816
:1068E00003F020FA10BD00000040024010B500F097
:1068F0005FFA10BD2DE9F047074688461646C246A6
:1069000007EB47011B4800EBC109D9F8140020B17F
:10691000012811D0022826D11EE0484600F080FA56
:106920000546B54201D2002405E0344632465146C0
:10693000484600F0BCFA18E0484600F071FA0546F7
:10694000B54201D2284600E0304604462246514670
:10695000484600F0ACFA08E032465146484600F09E
:106960006DFA044601E0002400BF00BF2046BDE8E8
:10697000F0870000B43D002010B505F003F910BD0C
:1069800010B52E480068002856D000202B4908601A
:1069900006F07CFB2A48006880682A49086008469F
:1069A000006829490968401AC82802D901202749E6
:1069B000087024480068244908602448007888B199
:1069C0000E2004F068F92249224A891AC9080322D4
:1069D00042EA014020A104F051FC0020284908604F
:1069E0001A49087026480068032818D30E2000BFF3
:1069F0004FF0A0410A46012303FA00F1C2F808153E
:106A000000BF00BF1249134A891AC908032242EA8B
:106A100001401CA104F032FC00201949086018480C
:106A20000068401C1649086000201F49087004488F
:106A300001681E4803F020FD10BD000000710140F8
:106A4000702B0020642B0020C02B0020B82B0020CE
:106A5000B0FD0200B0FD0200535749335F45475572
:106A6000335F49525148616E646C65722053594ED0
:106A7000435F50494E5F52455345540D0A00000094
:106A8000BC2B0020535749335F454755335F49526C
:106A90005148616E646C65722053594E435F504992
:106AA0004E5F5345540D0A00612B002040FE02004A
:106AB00001480249086070470090D003CC2C0020A8
:106AC00010B502F019FD28B192480088C0F30420E7
:106AD0009149086002F064FD10B190489049486700
:106AE00002F086FD30B18B48E0380068C0F34230D8
:106AF0008C49086002F0A6FD28B18B48006820F0A0
:106B000080708949086002F0B5FD48B100208749CE
:106B100008604FF08041C1F810018249091F0860E8
:106B200002F0D2FD18B103207E496431086002F002
:106B3000E3FD68B105207E49086001207C49783179
:106B4000086000207A49083108603F20091F08606A
:106B500002F0EAFD002855D06E48E0300068754923
:106B600008606C48E4300068091D08606948E83036
:106B70000068091D08606748EC300068091D08605E
:106B80006448F0300068091D08606248F43000680D
:106B9000091D08605F48F8300068664920310860C8
:106BA0005C48FC300068091D086063480068091DE6
:106BB00008606148001D0068091D08605E480830D3
:106BC0000068091D08605C480C300068091D0860F9
:106BD0005948103000685749403108605648143011
:106BE0000068091D0860544818300068091D0860D5
:106BF00051481C300068091D08604F48203000686B
:106C0000091D086002F04EFC30B14248CC380068E3
:106C100000F04F004949086002F098FC40B1484834
:106C2000006800F0010018B16FF0010044490860ED
:106C300002F0CEFC28B14348006840F4806041492E
:106C4000086039487438006840F470003649743977
:106C5000086000BF00BF00BFBFF34F8F00BF00BF81
:106C600000BF00BF00BF00BFBFF36F8F00BF00BFFA
:106C700000BF3548006800F0004028B93248001DC8
:106C8000006800F00040E8B301203049086000BF10
:106C90002F4800680028FBD015202B49086000BF52
:106CA0002B4800680028FBD015212748001D0160F3
:106CB00000BF274800680028FBD000202349086057
:106CC00000BF234800680028FBD000BF00BF00BF02
:106CD00000BF00BFBFF34F8F00BF00BF00BF12480F
:106CE000F038006800F4E0601A490843001D0E49BE
:106CF000F039086000BF00BF00BFBFF34F8F00BF77
:106D000000BF00E003E000BF00BF00BFFDE7FFF7EA
:106D1000CFFE10BD24030010403501400DF0ADBA88
:106D200000C007403C050040FCED00E00C010040C5
:106D30001056004020C5004024040010E40E00401E
:106D4000000400403C1700400012001004E5014020
:106D500000E401400000FA0510B50422024903488E
:106D600002F0B1FF10BD00001C3700200080004081
:106D700010B504220249034802F0A5FF10BD00002F
:106D8000283700200090004010B504220249034833
:106D900002F099FF10BD00003437002000A0004031
:106DA00010B502490868804710BD0000042C00207F
:106DB00010B5124C02202061606111A0A06113493E
:106DC000E1614FF4007121620021A1626162E16220
:106DD0000BA0A0640E49E164102121650021A1658A
:106DE0006165E1650BA1E01DFFF789FB0AA1204663
:106DF000FFF785FB2020A07110BD00009C3D002006
:106E00005465726D696E616C00000000143E0020D4
:106E10001440002052545400534547474552000047
:106E200010B501460A69CB689A4204D88C68641E82
:106E3000E41AA01801E0D41A601E10BD2DE9F04735
:106E40000446894617464FF0000AE56800BFD4F8AB
:106E50001080A84503D9A8EB0500461E04E0A5EB69
:106E60000800401CA1680E1AA068401BB04201D95E
:106E7000304601E0A068401B0646BE4201D23046C3
:106E800000E0384606466168481932464946FFF731
:106E90000BFBB244B144BF1B3544A068A84200D1EB
:106EA0000025E560002FD2D15046BDE8F0872DE9DE
:106EB000F047044689461546E668A068871BAF423E
:106EC00008D9616888192A464946FFF7EDFA701912
:106ED000E06010E0B8466168881942464946FFF70D
:106EE000E3FAA5EB070809EB070142466068FFF7E4
:106EF000DBFAC4F80C80BDE8F08702E008C8121F76
:106F000008C1002AFAD170477047002001E001C192
:106F1000121F002AFBD170470146202908DA012000
:106F200088400A4A104008B1012070470020FCE761
:106F3000402909DAA1F12000012202FA00F008B18B
:106F40000120F2E70020F0E70120EEE7FC06FFBD9C
:106F500000BFEFF31081084672B670470246002169
:106F600004E0505C08B101207047491C0629F8D3A1
:106F70000020F9E770B504460D4604F22740FFF7FC
:106F8000EDFF0646012D06D0022D0DD0032D11D0A8
:106F9000042D19D113E0A07928B194F8240010B978
:106FA0000EB1012070BD00BFE07910B10EB102201A
:106FB000F8E700BF207A08B10320F3E700BF607A4A
:106FC00008B10420EEE700BF0020EBE70146481CB3
:106FD000052290FBF2F302FB1300C0B2704701469A
:106FE00091F82420012A01D1EE2000E01F207047F3
:106FF00010B501220221002001F064FB044600BF0D
:107000001CB1072C01D0204610BD00BF0722022171
:10701000012001F057FB044600BF1CB1072C01D032
:107020002046F1E700BF0A220021084601F04AFB92
:10703000044600BF1CB1072C01D02046E4E700BF86
:107040000020E1E730B5ABB0AC216846FFF745FA68
:1070500002208DF8000000208DF8020006208DF837
:1070600003000121ADF84C100F49149101218DF856
:107070007C104FF4A0712291002123910B4829909C
:1070800069460B4800F03AFC044600BF254625B18E
:1070900000BF284600F07EF800BF00BF0121044871
:1070A00000F029FC2BB030BD062B0020C5C5020026
:1070B000F02C002070B50321064800F0C1FC044606
:1070C00000BF254625B100BF284600F063F800BF89
:1070D00000BF70BDF02C002072B600BF04F09AF91A
:1070E00000BF00BF03F03EFF0028FBD100BF00BF80
:1070F0001D491E4A891AC908012242EA01401CA101
:1071000004F0BCF800BF1D48006800F0010000B1A9
:1071100000BE00BF1449154A891AC908022242EA72
:10712000014017A104F0AAF800BF00BF00BF00BFD4
:1071300000BFBFF34F8F00BF00BF00BF0F48E43850
:10714000006800F4E06012490843001D0B49E4396F
:10715000086000BF00BF00BFBFF34F8F00BF00BF7C
:1071600000BF00BF00BFFDE720FE0200B0FD02002F
:10717000466174616C206572726F7200F0ED00E020
:1071800053797374656D2072657365740000000037
:107190000000FA053EB504460020009001900290E0
:1071A00002946A46002144F20100FFF795FF3EBDBC
:1071B00070B504460D46204602F002FB28B1294670
:1071C000204602F0F1FA002070BD0520FCE70346DE
:1071D00009B90E20704712B1501E104008B10920A5
:1071E000F8E71960501E988000209860D86000BFB2
:1071F000F0E770B504460D46204602F0E1FAA1889A
:10720000884205D82946204602F0EDFA002070BDDC
:107210000420FCE710B5024801F0FEFF10BD00009D
:10722000182C002010B503460C460AB9072010BDE3
:1072300019684A61012C01D1012000E00020086199
:107240000020F4E738B5134800680090082358225E
:1072500011491248006803F015F804460CB12046A5
:1072600038BD0F4A69460F4801F0DCFF04460CB1F7
:107270002046F5E701210B4802F072F801230A4A83
:107280001946084801F09AFF012008490870204675
:10729000E6E7000048F402004C37002038F4020012
:1072A00079D40200182C0020FFFF7F00242C00203E
:1072B0002DE9F04106460D4617463446207F10B1B1
:1072C0000020BDE8F081A76102F072FB401941F196
:1072D0000001C4E90201206900B1256121460020B6
:1072E00006F034FFEDE770B5044625460020287708
:1072F0002946012006F02AFF70BD000010B50A4C97
:1073000020780A49085C18B1201D05F023F907E030
:1073100020780649085C18B904F10C0004F0A2FFBB
:1073200000BF002010BD00003C2C0020F82B0020E6
:107330002DE9F04104460F48077821460E48FFF733
:1073400037FF804697B100200A49087001220B4997
:107350000B4803F0ABFA054600BF2E4626B100BF2E
:107360003046FFF717FF00BF00BF00BF4046BDE833
:10737000F0810000562C0020B4370020552C00204E
:107380003C2C00202DE9F04188B004460E461746FB
:1073900098462B4807601EB9072008B0BDE8F08169
:1073A000B08882B227483168FFF711FF054600BF59
:1073B000284600B1F1E700BFB08982B22248B16827
:1073C000FFF705FF054600BF284600B1E5E700BF0F
:1073D00020221E496846FFF767F860690690207C06
:1073E00008B1012000E000208DF814008DF81C8009
:1073F000607C08B10E2000E000208DF81500E068E8
:107400000290A06803902068019060680090104A84
:107410006946104803F004FA054600BF284600B14B
:10742000BBE700BF00200C4908702068401C28B151
:1074300001220A49074803F039FAAEE70020ACE719
:10744000502C0020B4370020C43700204CF4020038
:10745000A1E802003C2C0020562C0020552C0020D6
:107460002DE9F041054629461448FFF7C2FE0646BD
:1074700006BB134C002720781249085C20B1201D60
:1074800005F058F8074608E020780E49085C20B956
:1074900004F10C0004F0D4FE074600BF57B90A49B6
:1074A0000648FFF785FE28B901220749044803F082
:1074B0001FFA06463046BDE8F0810000C4370020C0
:1074C0003C2C0020F82B0020542C002010B5044642
:1074D000204606F019F910BD70B5044625460E4841
:1074E0008068B0B1ADB9FFF733FD06460A480068C1
:1074F0000A490860084840684FF0E021C1F80401DB
:107500000020054988601EB900BF62B600BF00BFF9
:1075100000BF00BF70BD00004037002000E100E068
:10752000F8B505460C4617462088001DB84201D91B
:107530000C20F8BD684679DF064600BF304600B132
:10754000F7E700BF0320218868542088401C208072
:107550001920218868542088401C208020884119E7
:10756000BDF8000007F06EFC218808442080002050
:10757000DFE770B505460C462068401C28B120683E
:1075800003F09FFB206803F04AFB6068401C18B1C1
:107590000021606803F029FB2868A169C0F8241560
:1075A00000BF617D227D286841EA0203C0F86C3586
:1075B00000BFD4E90012286804F00AFC207D0128ED
:1075C00014D1A068401C18B10021A06803F00DFB85
:1075D000E068401C28B1E06803F073FBE06803F04A
:1075E0001EFBD4E90221286804F0DBFB70BD70B5F6
:1075F00005460C462068401C28B1206803F06CFB4F
:10760000206803F018FB6068401C18B10021606816
:1076100003F0F8FA2868A169C0F8241500BF617D5D
:10762000227D286841EA0203C0F86C3500BFD4E926
:107630000012286804F004FC207D012814D1A06801
:10764000401C18B10021A06803F0DCFAE068401C7F
:1076500028B1E06803F040FBE06803F0ECFAD4E9FD
:107660000221286804F0CDFB70BD0000002114E069
:107670000C48D0F81024012308E000BFD06800793E
:10768000884201D1002303E0D0680268002AF4D1C7
:1076900000BF0BB108467047491C0A29E8DB4FF0D0
:1076A000FF30F8E7783900202DE9F04104460F4615
:1076B000154615B90E20BDE8F0810020286000BFF6
:1076C0000CB90E20F7E700BF00BF206808B90E20F4
:1076D000F1E700BF00BFE088C11700EB917189108E
:1076E000A0EB810109B10720E5E700BF384600F0B3
:1076F000AFFAC6B2142E01D10520DCE72079B042E2
:1077000001DC0420D7E7E188206806FB010028603F
:107710000020D0E72DE9FC410546884616460024A6
:1077200037880020308095F82D0058B13A46314610
:10773000404600F0A5FA044600BF204608B1BDE867
:10774000FC8100BFA87850B13A4631464046FFF769
:10775000E7FE044600BF204600B1F0E700BFE8782E
:1077600060B1E97848B23B463246414602F053F8F0
:10777000044600BF204600B1E1E700BF686868B179
:10778000696891F900003B463246414606F09CFF8D
:10779000044600BF204600B1D1E700BF2889002879
:1077A0000EDD43460622022105F10800CDE90067FF
:1077B00007F06DFC044600BF204600B1BFE700BFE4
:1077C000288A00280EDD43460722032105F1100018
:1077D000CDE9006707F05BFC044600BF204600B11E
:1077E000ADE700BF288B00280EDD4346152214218B
:1077F00005F11800CDE9006707F049FC044600BF19
:10780000204600B19BE700BF286A58B13B4632468C
:107810004146286A01F07CFB044600BF204600B1C7
:107820008DE700BF686A58B13B4632464146686AF8
:1078300002F008FC044600BF204600B17FE700BF0D
:1078400095F82C0000280BDD3B4632464146284681
:1078500006F05AF8044600BF204600B16FE700BFAB
:10786000287858B13B4632464146284602F0A6FCED
:10787000044600BF204600B161E700BF20465EE736
:10788000F8B504460E461546002000902B466A4681
:107890003146204600F008F807460FB90020F8BD31
:1078A000BDF800002044FAE7F0B504460D4604B1E7
:1078B0000AB90020F0BD002103E0605C401C0844D0
:1078C00081B21088884203DC481C205C984201D0B9
:1078D000A942F2DBA94201DB0020EBE7881C86B25B
:1078E000605C401E87B2F019A84201DD0020E1E78C
:1078F00016803846DEE780F83010704770B50446D1
:107900000D4605B10CB90E2070BD05F1780001F0EF
:10791000A0FA08B90720F7E70020A0702C2205F193
:107920007801201DFEF7C0FD002084F83000D5F856
:10793000A4006063D5F8A800A0634FF6FF70A4F818
:10794000240404F58260C4F82004002140F22C4095
:10795000C4F82614A4F82A140155207810B9FF2081
:1079600084F8540004F15500C4F810042046FFF7D1
:1079700036FB40F21441085304F2144204F155015D
:107980002846FFF7C7FE064600BF304600B1BBE7FA
:1079900000BF04F231204FF4836108512046FFF705
:1079A0001EFBA4F81C044FF48360015904F21C422E
:1079B00005F13C00FFF7AEFE064600BF304600B1C1
:1079C000A2E700BF012151200155208B81B2482040
:1079D0000153012084F83C0000212164502001550E
:1079E0006169616404F13C02002104F1540072DF1A
:1079F000064600BF304600B186E700BF0120207078
:107A0000304681E770B504460D462E462088102882
:107A100004D0112807D026280FD109E0214630468E
:107A200004F0F6FE0AE02146304604F0B6FF05E019
:107A30002146304605F0FDF800E000BF00BF70BDF4
:107A400070B504460E46207808B9082070BDA670AF
:107A5000002140F22C40C4F82614A4F82A14015541
:107A6000A07910B1A078012809D0E07910B1A078F0
:107A7000012804D0E07970B1A07802280BD1606BA6
:107A800030B1012084F82D040820616B884702E0A2
:107A9000002084F82D0431462046FFF76BFAA070D1
:107AA000606BA0B1A078032802D0A07804280ED182
:107AB000607960B194F82E0448B9002084F830044D
:107AC000012084F82F040720616B884702E0002022
:107AD00084F82F04182104F13C00FEF7FEFC01207D
:107AE00084F83C0004F12C0005F07AF920B194F8F8
:107AF0002C105120015502E001215120015594F82C
:107B0000240060B104F1280005F06AF920B194F86E
:107B100028105220015502E0012152200155002178
:107B200050200155A078052824D2DFE800F01F037B
:107B30000A11180004F13C01204605F077FF0546C4
:107B400019E004F13C01204605F058FF054612E01B
:107B500004F13C01204605F07BFF05460BE004F1F3
:107B60003C01204605F0A2FF054604E0002084F811
:107B7000310000E000BF00BFA07898B104F13C02E2
:107B800004F15400D4F8201472DF05460DB12846E4
:107B90005CE794F8301094F8540073DF05460DB19B
:107BA000284653E7606B18B194F83100616B884741
:107BB00000204BE72DE9F041044600BF14B90E2028
:107BC000BDE8F08100BF1C2221461C48FEF76CFC7A
:107BD0001B481A490860206860B120687ADF0546B2
:107BE0000DB12846ECE7164821680A68026049682A
:107BF000416005E012487BDF05460DB12846DFE70E
:107C0000002617E006EB86000E4901EB800700BF57
:107C10004FF6FF70388000BF0B4800EB46107860CD
:107C20000A4A0021381DFFF7FDFA05460DB1032071
:107C3000C6E7761C002EE5D00020C1E7C435002041
:107C4000E82B0020B035002090350020D1EF020055
:107C500010B50446204600F005F808B1204610BDD6
:107C60001420FCE710B50446142C01DB002010BDE5
:107C70002146024802F061FBF9E70000E4350020EC
:107C80002DE9FC4105460C46174620880930B842CC
:107C900002D90C20BDE8FC8168466DDF064600BFB6
:107CA000304600B1F6E700BF0820218868542088DC
:107CB000401C20801B20218868542088401C208084
:107CC00020882844DDF801100160BDF8051081808E
:107CD0002088801D20809DF80000400818B90020F1
:107CE0002188685402E00120218868542088401CC3
:107CF00020800020CEE70000F8B505460F4600249E
:107D0000288821284FD006DC10281FD0112809D040
:107D100013287AD157E03B2879D0522864D05628CE
:107D2000F7D182E04FF6FF704849088002204849A9
:107D300008704849484A891AC908032242EA0140A2
:107D400046A103F09BFA06F0E1FE7DE04149424A7C
:107D5000891AC908032242EA014044A103F08EFABD
:107D6000072000F0DDFC044600BF264626B100BF18
:107D70003046FFF70FFA00BF00BF012034490870FA
:107D8000A88832490880084601883B4802F074FC04
:107D9000044600BF264626B100BF3046FFF7FAF979
:107DA00000BF00BF50E000200090A88869468FDF28
:107DB000044600BF264626B100BF3046FFF7EAF969
:107DC00000BF00BF40E000231A4685211F480088FD
:107DD0007FDF044600BF264626B100BF3046FFF7CE
:107DE000D9F900BF00BF00BF00231A461946174843
:107DF0000088B1DF044600BF264626B100BF3046EA
:107E0000FFF7C8F900BF00BF1EE01CE0FFE7A8882D
:107E1000132176DF044600BF264626B100BF304658
:107E2000FFF7B8F900BF00BF0EE0A888132176DF86
:107E3000044600BF264626B100BF3046FFF7AAF928
:107E400000BF00BF00E000BF00BFF8BD002B002056
:107E50003C2B002020FE0200B0FD02004469736349
:107E60006F6E6E65637465642E000000436F6E6E06
:107E700065637465642E0000E42C002070B505462F
:107E80000E462888102802D011282CD115E017485A
:107E9000006860B901F0D0F8044600BF34B114485E
:107EA000006818B1204612490968884700BF0F488A
:107EB0000068401C0D49086016E00C480068401E30
:107EC0000A4908600846006860B9FFF791F804465F
:107ED00000BF34B10648006818B12046044909685B
:107EE000884700BF00E000BF00BF70BDE42B00204A
:107EF000E02B002070B504460D462088102806D0DF
:107F0000112808D012280ED0502810D107E02046A2
:107F100004F0DCFB0CE0204604F026FD08E02046DF
:107F200004F0B8FE04E0204604F0B8FB00E000BF17
:107F300000BF70BD2DE9F04104460F46A688208899
:107F4000102806D0112817D019283DD01A2848D15A
:107F500016E005F063FA304605F03CFA20B900BFA0
:107F60000420FFF717F906E0E07B012803D0314633
:107F70001D4802F0F1F934E0304605F073FA30E0C4
:107F8000207A0509042D01DB012000E000200246D3
:107F9000314615480C3001F02FFC032D01DB012088
:107FA00000E00020024631460F48083001F024FC72
:107FB000022D01DB012000E00020024631460A4884
:107FC000001D01F019FC0CE0207A48B9607AC0F37A
:107FD000C0052A46314604480C3001F00DFC00BFB4
:107FE00000BF00BFBDE8F081EC35002070B5002077
:107FF00013490860C82006F0FBFA044600BF254676
:1080000025B100BF2846FFF7C5F800BF00BF0E200E
:1080100002F04CFE0B490C4A891AC908032242EAB5
:1080200001400AA103F02AF90649074A891AC9083A
:10803000032242EA01400EA103F020F970BD0000C6
:108040006C2B002020FE0200B0FD0200626C655F18
:108050007265635F73796E635F68616E646C6520DF
:1080600053594E435F50494E5F5345540D0A00002B
:108070005374617274696E672073796E63206265F0
:1080800061636F6E207472616E736D697373696F73
:108090006E210D0A0000000070B51D48006870B127
:1080A00006F0BEFA044600BF254625B100BF2846AB
:1080B000FFF770F800BF00BF0020154908600E20D0
:1080C00002F0DEFD1349144A891AC908032242EA64
:1080D000014012A103F0D2F80A2002F051FB0E2059
:1080E00002F0E4FD0B490C4A891AC908032242EA4E
:1080F000014014A103F0C2F80649074A891AC908C9
:10810000032242EA014018A103F0B8F870BD000054
:108110006C2B002020FE0200B0FD0200626C655F47
:108120007265635F73796E635F68616E646C65200E
:1081300053594E435F50494E5F52455345540D0AC3
:1081400000000000626C655F7265635F73796E6347
:108150005F68616E646C652053594E435F50494EB1
:108160005F5345540D0A000053746F7070696E6759
:108170002073796E6320626561636F6E2074726133
:108180006E736D697373696F6E210D0A00000000D4
:1081900070B50446204606F04FFE054605F0010086
:1081A00070BD38B503F0ACFC044600BF254625B1D0
:1081B00000BF2846FEF7EEFF00BF00BF0020009082
:1081C0006946012003F0ECFA044600BF254625B1BC
:1081D00000BF2846FEF7DEFF00BF00BF684603F081
:1081E000AFFB044600BF254625B100BF2846FEF779
:1081F000D1FF00BF00BF38BD10B52E48007838B1A0
:108200005D212D4800F088F800202A49087009E017
:108210002A48007830B10621294800F07DF8002076
:10822000264908702748007828B1FFF7DFFE0020B4
:108230002449087007E02448007820B1FFF72CFF9C
:1082400000202149087021480078012803D100202E
:108250001E49087006E01D480078022802D100205F
:108260001A4908701A48006888B11948006805283A
:108270000DD20E2002F004FD1649174A891AC908CA
:10828000032242EA014015A102F0F8FF10E0104875
:10829000006805280CD30E2002F008FD0D490E4A97
:1082A000891AC908032242EA014014A102F0E6FF3C
:1082B00010BD0000432B002018320020442B00206A
:1082C0003D2B00200B2B00200C2B00203C2B0020F2
:1082D0006C2B002020FE0200B0FD0200626C655F86
:1082E0007265635F73796E632053594E435F5049E3
:1082F0004E5F52455345540D0A000000626C655FA5
:108300007265635F73796E632053594E435F5049C2
:108310004E5F5345540D0A00F8B505460E4600BFA2
:1083200000960D4803886A4629460C4800F018F864
:108330000446082C0CD0132C0AD0052C08D000BF02
:10834000274627B100BF3846FEF724FF00BF00BF15
:10835000132CE5D0F8BD0000002B0020E42A0020FB
:108360002DE9F04186B00446884617461D4600BFF9
:108370001CB90E2006B0BDE8F08100BF01AA294655
:108380006069FFF791F9064600BF304600B1F1E79A
:1083900000BF4FF6FF70854201D0019808B9052053
:1083A000E8E70198007808B90820E3E73888F4285E
:1083B00001DD0720DEE70020029003900490059085
:1083C000A088ADF80800CDF81480049701208DF83E
:1083D0000A0002A92846AEDFCCE7000070B58EB0D7
:1083E00004460E463F4B0FCB09AD0FC500BF14B975
:1083F0000E200EB070BD00BF00BF0EB90E20F8E712
:1084000000BF3068A061214609A862DF054600BFB1
:10841000284600B1EDE700BF20788DF836000A202D
:10842000ADF83400A21C0DA90120A8DF054600BF4D
:10843000284600B1DDE700BF202101A8FEF74DF876
:108440000C20ADF8040020788DF80600F420ADF87B
:1084500008000120ADF80A008DF810009DF8110009
:1084600020F0080008308DF811009DF8110020F070
:108470000400001D8DF8110001208DF815008DF805
:108480001600608804F10C0201A900F0BFFB05464C
:108490000DB12846ADE7202101A8FEF71EF80B20FC
:1084A000ADF8040020788DF80600F420ADF808003F
:1084B0000120ADF80A008DF810009DF8110020F0A1
:1084C000100010308DF8110001208DF815008DF886
:1084D00016008DF817006088221D01A900F096FB98
:1084E00087E700004CF2020070B504460D4605B166
:1084F00004B970BD2E462088102804D0502807D01B
:1085000057280FD109E02146304604F017F90AE058
:108510002146304604F0EAFB05E02146304604F0EF
:10852000F5FA00E000BF00BF00BFE2E710B5024669
:108530000949885C00BF4FF0A0442146D1F80435BA
:10854000012484409C43C1F80845012484401C4018
:10855000C1F80C4500BF10BD00F2020010B5044682
:108560000249085D012102F0C2FB10BD00F20200C9
:1085700010B504460249085D002102F0B8FB10BDA9
:1085800000F2020010B50146094B585C00BF4FF0E5
:10859000A044234600BFD3F80445C44004F00104BE
:1085A0000CB1012000E00020024682F0010010BD65
:1085B00000F2020010B5002403E02046FFF7CEFFD2
:1085C000641C042CF9D310BD10B5002403E0204630
:1085D000FFF7CEFF641C042CF9D310BD02464FF008
:1085E000FF30002106E0054B5B5C934201D1084659
:1085F00002E0491C0429F6D300BF704704F20200D0
:108600002DE9F04106460F464FF0000800243046A1
:10861000FFF7E4FF0446042C3ED20FB3012F02D033
:10862000022F38D130E004EB4400214911F80080DA
:1086300004EB44000844407850B11E4A4FF4804196
:108640001D480068FEF734FE05460DB9194806704E
:1086500004EB4400164908448078184908551AE08C
:1086600015480068FEF73FFE1448005D04EB440126
:108670000F4A11448978884205D104EB4400114621
:10868000084490F8028006E004EB440008490844DE
:1086900090F8018000BF00BFB8F1000F06D0084875
:1086A000006818B14046064909688847BDE8F0816E
:1086B00060350020D82B002010F20200D92B0020BA
:1086C000D42B002030B503460020042B23D2012AEE
:1086D00007D1012903D103F10E04E4B200E0002424
:1086E000224679B1012902D0022911D104E003EB1D
:1086F00043040A4D2A550DE003EB4304074D2C4477
:10870000627007E003EB4304044D2C44A27001E0C7
:10871000072000BF00E0072030BD000060350020CA
:1087200070B5044600250548007800F0010018B136
:10873000204600F005F80546284670BDCC2B0020E9
:108740002DE9F047044600260025DA48007820B1DC
:108750000020D849087001F081FB182C7ED2DFE898
:1087600004F00C16174A7EB2F6F4F3F2F1F0EFEED5
:10877000EDECEBEAE9E8E7E6E5E401F06FFBCE4873
:108780000068FEF7B0FD0646CC4804708DE100BFDE
:108790000020FFF7F7FE58B10020FFF7DFFE022CA4
:1087A00002D14FF4E16001E04FF47A60054609E040
:1087B0000020FFF7DDFE022C01D1C82001E04FF4BC
:1087C000C8700546BD4804704FF40040A5FB00107A
:1087D0004FF47A73CF1840F100015A000023384655
:1087E000FDF70EFE814600224946B3480068FEF7B9
:1087F0005FFD064659E10020FFF7C4FE58B1002096
:10880000FFF7ACFE032C02D14FF4487001E04FF4A7
:108810007A60054609E00020FFF7AAFE032C01D18B
:10882000C82001E04FF4C8700546A44804704FF416
:108830000040A5FB00104FF47A728F1840F1000140
:10884000520000233846FDF7DBFD814600224946F1
:1088500099480068FEF72CFD064626E124E1002039
:10886000FFF790FE58B10020FFF778FE042C02D1EC
:108870004FF47A6001E04FF47A6005460AE0002088
:10888000FFF776FE042C02D14FF4C87001E04FF4DC
:10889000C8700546894804704FF40040A5FB0010DD
:1088A0004FF47A73CF1840F100015A000023384684
:1088B000FDF7A6FD8146002249467F480068FEF785
:1088C000F7FC0646F1E00020FFF75CFE50B1002007
:1088D000FFF744FE052C01D1C82001E04FF47A6077
:1088E000054609E00020FFF743FE052C01D1C82012
:1088F00001E04FF4C8700546704804704FF4004022
:10890000A5FB00204FF47A73D71840F100015A00FC
:1089100000233846FDF774FD81460022494666482B
:108920000068FEF7C5FC0646BFE0B8E0B6E0AAE086
:10893000A1E098E092E05FE05DE05BE059E057E0A5
:1089400051E042E033E024E015E00EE0FFE70020D4
:10895000FFF7ECFD59480470002240F2666156486A
:108960000068FEF7A5FC06469FE00020FFF700FE2A
:108970005248047099E001204E490870FFF7D6FD77
:10898000002240F266614C480068FEF791FC064602
:108990008BE0012047490870FFF7C8FD00224FF423
:1089A000005145480068FEF783FC06467DE0012043
:1089B00040490870FFF7BAFD002240F266613E4868
:1089C0000068FEF775FC06466FE001203949087023
:1089D000FFF7ACFD00224FF4005137480068FEF766
:1089E00067FC064661E0FFF7EFFD344804705CE089
:1089F00000BF00BF00BF00BF31480068FEF773FC36
:108A00000646C4F1110515B30EBB012D18D9A8B245
:108A1000C82148434FF4004180FB01104FF47A72A3
:108A20008F1840F10001520000233846FDF7E8FCA2
:108A300081460022494622480068FEF739FC064676
:108A40000220FFF795FD01201E49087005E0022075
:108A5000FFF784FD00201B49087026E001F0FEF9B5
:108A60001648047021E001F0F9F90020FFF780FDBD
:108A70001248047019E001F0F1F90120FFF778FDC8
:108A80000E48047011E001F0E9F90020FFF770FDD5
:108A90000120FFF76DFD0948047006E000BFFFF7F5
:108AA00093FD0648047000E000BF00BF3046BDE8FB
:108AB000F0870000C92B002008F20200C82B00201C
:108AC0000CF20200D02B00202DE9FC4704460D4695
:108AD0001646A71C4FF001080020019001A8FEF7E0
:108AE000F5FC3048006828602E4800682D49496828
:108AF000411A2C488068401CA0EB010915E00121B7
:108B0000294801F046FC01F0E5F982465146264825
:108B100001F03FFC2348006822494968411A214876
:108B20008068401CA0EB010900BF4F45E7D8B8F1B1
:108B3000000F30D00021009176B1009921F003019F
:108B4000491C0091009921F00401091D0091009930
:108B500064F3891100910DE0009921F00301891C53
:108B60000091009921F00401091D0091009964F31E
:108B70009F5100910B4909680A4A92681140094ABD
:108B80000C3202EB81000099016006490968394402
:108B90000C3A116000BF9DF80400FEF79DFC4046B2
:108BA000BDE8FC8778390020943D002070B504466C
:108BB0000D460A2D03D10D212046FFF7F7FFA168CE
:108BC000481CA06020684554D4E90110884202D3B3
:108BD000204601F0C4FE70BD04484068034909689E
:108BE000884201D1012070470020FCE7783900203D
:108BF0000146024850F821007047000070360020FE
:108C00000146014840567047A036002070B590B02C
:108C100006460C461546A07818B901208DF80E00BE
:108C200002E0A0788DF80E002088ADF80C0000203E
:108C30000290607C02A904F067FFA07C0DF109019D
:108C400004F062FFE07B08B1012000E000209DF805
:108C50000A1060F3C3018DF80A10207C08B10120CE
:108C600000E000209DF80A1060F304118DF80A104E
:108C7000207B08B1012000E000209DF80A1060F37D
:108C800000018DF80A10207D08B1022000E00120CB
:108C90009DF80A1060F342018DF80A101C2109A802
:108CA000FDF71BFC607BC0F3001018B9607BC0F3BC
:108CB0004010F8B100200090E07C0DF1010104F0BB
:108CC00023FF00BF9DF8000020F00F00401C8DF82E
:108CD00000009DF8000020F0F00010308DF800003A
:108CE00000BF9DF8020020F00600801C8DF80200F5
:108CF000CDF838D0607B8DF82400A07B8DF825005E
:108D0000142104A8FDF7E9FB03A8049002A805902C
:108D1000A088ADF81C00A06820B1E088ADF818006C
:108D2000A0680890A069002849D000200190A0699F
:108D30000088ADF82C00A0694088ADF82E00A0692D
:108D400040680A9001A80D90A169087B01A904F070
:108D5000DBFEA169487B0DF1050104F0D5FEA06999
:108D6000807A08B1012000E000209DF8061060F331
:108D7000C3018DF80610A069C07A08B1012000E097
:108D800000209DF8061060F304118DF80610A0690C
:108D9000007A08B1012000E000209DF8061060F381
:108DA00000018DF80610A069807B08B1022000E068
:108DB00001209DF8061060F342018DF80610E0696D
:108DC00008B1E0690C902B4604AA09A93046AADF35
:108DD00010B070BD70B505460DB9094C01E0084CE6
:108DE000083409E0204601F032F8064606B904E0EE
:108DF00028467168884700BFF4E700BF70BD0000D7
:108E00006436002010B504462CB90120064948708C
:108E10000020FFF7DFFF012C04D1012002498870F8
:108E2000FFF7D8FF10BD00005C3600202DE9F047A9
:108E3000024613468C46D3E90245DCE90267B6EBED
:108E4000040877EB050002D30120BDE8F08700207D
:108E5000FBE701468878012805D191F82000012818
:108E600001D100207047886A042802D0486A04288B
:108E700001D10020F6E70120F4E733B58BB00546B9
:108E8000002000900C9878B100240BE021460CA83B
:108E900001F053FA28B1009A501C009001A820F864
:108EA0001240641C142CF1D32C2269462846FDF78D
:108EB000FBFA0DB030BD01460888062808DB08889B
:108EC000B0F5486F06DD08884FF6FF72904201D07A
:108ED000072070474888062808DB4888B0F5486FA7
:108EE00006DD48884FF6FF72904201D00720F0E778
:108EF00008884FF6FF72904208D04888904205D00B
:108F000008884A88904201DD0720E2E70020E0E778
:108F10002DE9F04107460D46144698462088801DED
:108F2000404502D90C20BDE8F0813846FFF7C3FF69
:108F3000064600BF304600B1F5E700BF0520218896
:108F400068542088401C2080122021886854208882
:108F5000401C208022885119388805F073FF218831
:108F60000844208022885119788805F06BFF2188F9
:108F7000084420800020D6E710B5044600BF2046F4
:108F8000FEF708F900BF10BD30B587B01C21684658
:108F9000FDF7A3FA002000904FF4A03001904FF4A9
:108FA000F020029003208DF80C000020ADF80E0098
:108FB0008DF8100009480590094806906846FEF7AC
:108FC000F9FD044600BF254625B100BF2846FEF73F
:108FD000E1F800BF00BF07B030BD000071C602005D
:108FE000798F0200F8B505460C46607A88B9207A78
:108FF00010B91048476801E00E4887682A4639468C
:109000006068FEF755F9064616B1304604F01CFCC0
:109010000EE0002020720748406948B101208DF819
:109020000000ADF80250034841696846884700BF18
:10903000F8BD0000C435002010B50122002108460B
:10904000FFF740FB044600BF1CB1072C01D02046AF
:1090500010BD00BF072202210120FFF733FB0446A9
:1090600000BF1CB1072C01D02046F1E700BF04224D
:1090700002210020FFF726FB044600BF1CB1072C8D
:1090800001D02046E4E700BF0020E1E72DE9FF41E1
:1090900005460C46002002900390ADF80840ADF85C
:1090A0000A40009001906A4602A9284690DF0646D1
:1090B000002E32D0304602F03FFE074619491A4AC8
:1090C000891AC908012242EA01403B462A4617494B
:1090D00002F0EAF8BDF8000010B9BDF8020068B16E
:1090E000BDF80230BDF800200E490F4FC91BC9085A
:1090F000012747EA01400EA102F0D6F8BDF80400AE
:1091000058B1BDF804200749074BC91AC908012303
:1091100043EA0140164902F0BBF8304604B0BDE80E
:10912000F0810000B8FD0200B0FD020000F6020070
:109130005468652072657175657374656420545850
:109140002F5258207061636B6574206C656E677474
:109150006820697320746F6F206C6F6E672062796E
:109160002025752F2575206F63746574732E00009C
:109170004CF6020010B50021034801F02BF904461B
:1091800084F3100010BD0000943D002070B505462A
:109190000C464FF4803000FA04F1284600F0DCFA67
:1091A00070BD70B505460C464FF4A07000EB84000E
:1091B00086B23146284600F0E9FA70BD2DE9F04745
:1091C00004460D4616461F464FF4803000FA05F857
:1091D0004FF4A07000EB85001FFA80F926F07F465F
:1091E0004146206802F0C2FA4146206802F0B2FA15
:1091F0004946206802F0A4FA32462946206802F067
:109200008FFA4146206802F0A8FA1FB14146206853
:1092100002F0AFFABDE8F08710B50446206802F00E
:1092200084FA10BD2DE9F04704460D4617466079D3
:109230002F4941F8207060792E4901EBC000007978
:1092400068B108262C492D4A891AC908022242EA27
:1092500001402BA102F012F83046BDE8F0872988C2
:109260002068C0F8081500BF94F90420AB781046B8
:10927000194600280CDA4FEA417C4FEA1C69DFF8F6
:10928000A4C000F00F08A8F104080CF8089007E04B
:109290004FEA417C4FEA1C68DFF88CC00CF8008074
:1092A00000BF00BF94F9040000BF00F01F020121BD
:1092B00091404209920002F1E022C2F8001100BF81
:1092C00000BF012061790B4A02EBC101087160798E
:1092D000114641F8304000260749084A891AC90852
:1092E000032242EA014011A101F0C8FF3046B4E771
:1092F000582C00205C2C002008FE0200B0FD02006B
:1093000052544320696E7374616E636520616C72A0
:109310006561647920696E697469616C697A6564F4
:109320002E00000018ED00E000E400E05254433A43
:1093300020696E697469616C697A65642E00000049
:1093400010B5014691F9040000F01F0301229A4074
:10935000024B440943F8242000BF10BD00E200E0A6
:1093600070B505460C4622460221284600F000FA58
:1093700070BD10B504464FF48271204600F006FA25
:1093800010BD10B504460021206802F0FAF910BDA6
:1093900010B504460421206802F0F3F910BD2DE950
:1093A000F84F04460D46164699464FF4803000FAB1
:1093B00005FB4FF4A07000EB850080B2009026F012
:1093C0007F465946204600F0C7F9206802F0ADF903
:1093D0000746206800F5A86151F825108A463A46EC
:1093E0002946206802F09CF92068009902F0A8F94B
:1093F0003946504604F024FE012806D1102002F020
:1094000053FD2068009902F09BF9206802F08DF965
:1094100007463946304604F013FE80465946206818
:1094200002F09BF9B8F1010F0FD1721C2946206898
:1094300002F076F9102002F037FD206802F075F98D
:10944000B84227D00D20BDE8F88F32462946206863
:1094500002F066F9206802F068F90746701E394686
:1094600004F0EEFD80466FF07F40A0EB0900404520
:1094700001D20D20E7E7B8F1000F0BD1721C29468D
:10948000206802F04DF9206802F04FF9B84201D08F
:109490000D20D8E701225946204600F069F9002046
:1094A000D1E7000013480078062820D11148001D9C
:1094B000007800F00F00D0B90E480830007800F0B6
:1094C000F000302801D1012070470A4808300078A8
:1094D00000F0F000402801D10120F5E705480830F0
:1094E000007800F0F000502801D10120ECE70020C6
:1094F000EAE70000E00F00F013480078062820D1CA
:109500001148001D007800F00F00D0B90E48083057
:10951000007800F0F000302801D1012070470A489F
:109520000830007800F0F000402801D10120F5E774
:1095300005480830007800F0F000502801D10120E3
:10954000ECE70020EAE70000E00F00F013480078A5
:10955000062820D11148001D007800F00F00D0B976
:109560000E480830007800F0F000302801D10120CA
:1095700070470A480830007800F0F000402801D118
:109580000120F5E705480830007800F0F000502889
:1095900001D10120ECE70020EAE70000E00F00F035
:1095A0000A48007806280ED10848001D007800F00F
:1095B0000F0040B905480830007800F0F00030286E
:1095C00001D1012070470020FCE70000E00F00F00F
:1095D00006480068062806D10448001D00680628D1
:1095E00001D1012070470020FCE70000300100108D
:1095F00013480078062820D11148001D007800F09B
:109600000F00D0B90E480830007800F0F000302884
:1096100001D1012070470A480830007800F0F000BE
:10962000402801D10120F5E705480830007800F016
:10963000F000502801D10120ECE70020EAE700000B
:10964000E00F00F00A48007806280ED10848001DF7
:10965000007800F00F0040B905480830007800F0AD
:10966000F000302801D1012070470020FCE7000005
:10967000E00F00F013480078062820D11148001DA3
:10968000007800F00F00D0B90E480830007800F0E4
:10969000F000302801D1012070470A4808300078D6
:1096A00000F0F000402801D10120F5E7054808301E
:1096B000007800F0F000502801D10120ECE70020F4
:1096C000EAE70000E00F00F00A48007806280ED113
:1096D0000848001D007800F00F0040B90548083028
:1096E000007800F0F000302801D101207047002000
:1096F000FCE70000E00F00F00A48007806280ED1D1
:109700000848001D007800F00F0040B905480830F7
:10971000007800F0F000302801D1012070470020CF
:10972000FCE70000E00F00F00A48007806280ED1A0
:109730000848001D007800F00F0040B905480830C7
:10974000007800F0F000502801D10120704700207F
:10975000FCE70000E00F00F070B504460D46294616
:10976000206801F0F7FF2946206801F0FFFF70BD77
:1097700070B504460E4615463146206801F0EDFFEF
:109780001DB13146206801F0F4FF70BD70B505468B
:109790000C462868015929B12146286801F0D0FFFC
:1097A000012070BD0020FCE770B504460D462A4636
:1097B0000021204600F00EF8A068401CA06070BD9B
:1097C00001468A68C868801A704701468A68C86876
:1097D000801A704710B583680B448488234004685E
:1097E000E35C137010BDC26883881A400368995403
:1097F000C268521CC260704770B505460E461446DA
:1098000024B13146284600F0A7FD03E03146284642
:1098100000F084FD70BD30B504461088C01C98422D
:1098200001D90C2030BD0220158848551088401CF5
:1098300010800120158848551088401C108015881C
:109840004C551088401C10800020EBE770B5044692
:109850000D4640F21442115B0122D4F81004FEF7C9
:109860000FF8064606B1357004F13C0204F582613A
:1098700004F1540072DF70BD3EB500BF9DF80000DA
:1098800020F00F00401C00909DF8000020F0F00038
:109890001030009000BF112214A168467CDF0446FE
:1098A00000BF254625B100BF2846FDF773FC00BF69
:1098B00000BF0020019002901020ADF80400182095
:1098C000ADF806000020ADF808004FF4C870ADF800
:1098D0000A0001A87ADF044600BF254625B100BF73
:1098E0002846FDF757FC00BF00BF3EBD424C455F18
:1098F0004150505F554152545F53594E4300000050
:1099000070B505460C4660880D490988884215D116
:10991000208840F67721884210D1A088C01E0949CE
:1099200008800949094A891AC908032242EA014004
:1099300004490B880A8806A101F0B6FC70BD00003E
:10994000002B0020022B002020FE0200B0FD0200B0
:1099500044617461206C656E2069732073657420A6
:10996000746F2030782558282564290070B50E4979
:109970000E4800F0E2FD044600BF254625B100BFB9
:109980002846FDF707FC00BF00BFF721074800F09D
:10999000C5FD044600BF254625B100BF2846FDF79A
:1099A000F9FB00BF00BF70BD01990200D02C002060
:1099B00070B50B48FFF730FC0A4B0CCB841843F111
:1099C0000005094903C9201A75EB010004D24FF0C4
:1099D0008073E41845F100052046294670BD00005B
:1099E000182C0020282C0020302C002010B501F06D
:1099F000B9FA08B901F04AFE10BD00000246002184
:109A00000CE001EB8100074B33F82000904204D1B9
:109A100001EB810003EB80007047491C0029F0D066
:109A20000020F9E7B03500202DE9FC5F83460E46A3
:109A300091461F46DDE90C45002E01DA704200E038
:109A4000304682464FF0010803E09AFBF9FA08F12C
:109A50000108CA45F9DA474500D9B84634B1002EA5
:109A600003DB05F00400042800D1641E05F00200A9
:109A700000B167B105F0010048B944B104E0641ECB
:109A800020215846FFF792F80CB1A045F7D3002EDD
:109A900005DA76422D215846FFF788F807E005F0F1
:109AA0000400042803D12B215846FFF77FF805F066
:109AB000020002280DD105F0010050B94FB944B1A0
:109AC00004E0641E30215846FFF770F80CB1A04541
:109AD000F7D33B464A4631465846CDE9004505F0A6
:109AE000B7F9BDE8FC9F000070B505460949286834
:109AF00002F05CF9286802F0E7F90446204600F01D
:109B00001F0201219140044A430942F8231000BF7B
:109B100000BF70BD8402020080E100E070B5054620
:109B20000949286802F073F9286802F0D1F904465F
:109B3000204600F01F0201219140044A430942F8E7
:109B4000231000BF00BF70BD1003420080E100E0A1
:109B50002DE9F04104460E464FF48E71206802F064
:109B600019F94FF4A271206802F014F9174920681E
:109B700002F01FF9206802F0A7F90546374628468B
:109B80003946002809DA4A074FEA126C104A00F0F9
:109B90000F031B1F02F803C003E04A07130E0D4A10
:109BA000135400BF00BF206802F08EF90546284616
:109BB00000F01F02012191404209920002F1E022CF
:109BC000C2F8001100BF00BFBDE8F08180000200B4
:109BD00018ED00E000E400E02DE9F04104460E46F7
:109BE0004FF48871206802F005F94FF490712068F5
:109BF00002F000F94FF49271206802F0FBF84FF484
:109C0000A271206802F0F6F84FF4AC71206802F0FF
:109C1000F1F81849206802F0FDF8206802F058F9C0
:109C20000546374628463946002809DA4A074FEAEA
:109C3000126C114A00F00F031B1F02F803C003E06F
:109C40004A07130E0D4A135400BF00BF206802F0EC
:109C50003FF90546284600F01F02012191404209C4
:109C6000920002F1E022C2F8001100BF00BFBDE87F
:109C7000F08100001003420018ED00E000E400E075
:109C800030B5024600201378C3F38003D3B11378B4
:109C900003F00303012B02D0022B10D107E013883D
:109CA000C3F383139B1C0C6823440B6008E00B6810
:109CB0000225146805EB945423440B6000E000BFB8
:109CC00000BF012030BD2DE9F04704460E46904606
:109CD000002722E0384602F03DF80546384602F0FB
:109CE00040F881462046294642580AB1012200E048
:109CF000002282B14846D4F80413014009B1012181
:109D000000E0002139B12946204602F02FF828460C
:109D1000D6E900219047781CC7B24745DADBBDE899
:109D2000F08700002DE9F04781460C4616464FF4B7
:109D300080374FF4A078002520E03946484601F0EE
:109D40001BFDA8B14146484601F00AFD80B13946E5
:109D5000484601F0FCFC3946484601F004FD414606
:109D6000484601F0E6FCE8B21B4A52F82410884746
:109D70007F0008F104001FFA80F86D1CB542DCD3A7
:109D80004FF480780121484601F0F6FC68B1414665
:109D9000484601F0E5FC40B14146484601F0C9FCA7
:109DA0000D4850F82410042088474FF4827802218F
:109DB000484601F0E1FC68B14146484601F0D0FC5C
:109DC00040B14146484601F0B4FC034850F8241025
:109DD00005208847BDE8F0870C2C00202DE9F041D4
:109DE0000446A08800EB020CB4F80480904501DD25
:109DF000104600E0A088A8EB0005E088C618B4F87B
:109E00000680984501DD184600E0E088A8EB0007D1
:109E10004888B4F80080404504DB4888B4F80280E4
:109E2000404502DD0020BDE8F0818888A84202D3C9
:109E30008888604501D90020F5E7C888B84202D378
:109E4000C888B04201D90020EDE70120EBE70146C8
:109E5000086808B102680A607047000010B5084839
:109E6000007850B1002405E0022C02D02046FEF715
:109E700075FB641C042CF7D301E0FEF79BFB10BDBF
:109E8000D02B002010B501F0FFFF002001498870A1
:109E900010BD00005C360020F721018017214180B1
:109EA0000021017141711B218171C171704770B531
:109EB0004FF48041002001F065FA044600BF2546BA
:109EC00025B100BF2846FDF765F900BF00BF01F0CE
:109ED00035F870BD2DE9FF4100272E4800F052FAF9
:109EE0002C48001F00F04EFA2B48406803902A4887
:109EF00085680398284028490C3101EB800800BF91
:109F000003A94046FFF7BCFE30B103982840224920
:109F10000C3101EB800800E000E0F1E700BF002415
:109F20000AE00398411C284003911B490C3151F869
:109F300020004DF82400641C022CF2D3009800F09D
:109F4000030001280DD0022814D1BDF806700421A9
:109F5000009801EB9050401E039901EB9000039094
:109F600009E0BDF806700098C0F383100399084417
:109F7000039000E000BF00BF0648001F00F0FBF99F
:109F8000064616B1044903984860384604B0BDE857
:109F9000F0810000903D002078390020FFF787FF16
:109FA00004F0F4F802F0C6FFFEF7FBF8FFF764FCDC
:109FB000FFF7DCFC03F0F4FCFDF744F8FEF7E4FFE8
:109FC00003F0DAFE0E2001210A4600231C461D463E
:109FD00000BF4FF0A0473E4641EA420747EA8307E9
:109FE00047EA042747EA054C06F5E06747F820C032
:109FF00000BF00BF00F05AFE0849094A891AC90883
:10A00000032242EA014007A101F038F9FDF752F8B6
:10A0100003E0FFF7EBFCFEF7EFF8FAE720FE0200A3
:10A02000B0FD0200424C452054656D706C61746552
:10A03000206578616D706C652073746172746564FD
:10A040002E0000002DE9F04105460E4614469846C4
:10A05000A888871C2088801C3844404502D90C20E1
:10A06000BDE8F081FE2F01D90C20F9E7781C21888A
:10A0700070542088401C2080FF2021887054208844
:10A08000401C208022889119288804F0DBFE21885A
:10A0900008442080A88800280DDDA86808B907209A
:10A0A000DEE7AA8823889819A968FCF7FDF92088BB
:10A0B000A988084420800020D2E72DE9FF4F87B00F
:10A0C000044691461E46A2462546BAF806009AF86E
:10A0D00005104843001F0690BAF806B0301DB0FBCB
:10A0E000FBF00590301DB0FBFBF10BFB1100049061
:10A0F000D9F8000081190698814202D90698801B80
:10A1000001E0D9F800000746C9F8007003E02D68A7
:10A110000598401E059005980028F8D103900498F2
:10A12000ABEB0008B84501D9384600E04046804610
:10A1300023E00399089808440290281D04990844D4
:10A140000190149828B14246DDE90110FCF7ACF902
:10A1500004E04246DDE90101FCF7A6F90020049085
:10A160002D68A7EB0807039840440390BB4501D92D
:10A17000384600E05846804600BF002FD9D10BB0CA
:10A18000BDE8F08F70B503460C469CB101F026F98E
:10A19000054600220AE0084800EB820108881E6894
:10A1A000B04202D11A60002070BD521CAA42F2D304
:10A1B0000520F9E70020F7E7000000002DE9F84F3F
:10A1C00005460F46144698462878012804D1687839
:10A1D00010B90720BDE8F88F2088801C404508D8BA
:10A1E0002878012807D12088801C697808444045D8
:10A1F00001D90C20EEE72088A8EB0000801E86B273
:10A2000000962188891CC81969467DDF814600BFF8
:10A21000484600B1DEE700BF2878022804D06878FD
:10A22000BDF80010884206DBBDF80000B04202DC39
:10A230004FF0090A0BE04FF0080A2878012805D1F1
:10A240006878B04202DC6878009000E00096BDF8C3
:10A250000000FE2801D90C20BCE7BDF80000401C1E
:10A26000218878542088401C2080208807F800A08E
:10A270002088401C20802088BDF8001008442080E1
:10A280000020A7E710B5044609B90E2010BD92FBC7
:10A29000F3F003FB102008B10920F7E7216000204C
:10A2A0006060A060A281E38100BFEFE770B5044663
:10A2B0000D4629462046FBF7BBFF18B12A882168C6
:10A2C000881870BD0020FCE770B505460C46208854
:10A2D0006188884204D12846FBF7ECFF012070BD5D
:10A2E0000020FCE770B504460D4629462046FBF7E2
:10A2F000C4FF18B16A882168881870BD0020FCE787
:10A3000070B505460C4620886188884204D12846ED
:10A31000FBF7AAFF012070BD0020FCE770B50546E1
:10A320000C4604F01F0301229A40D143620905EB59
:10A33000820000F039F8064670BD10B502464809A3
:10A3400052F8200001F01F040123A340184008B177
:10A35000012010BD0020FCE770B505460C4604F056
:10A360001F03012202FA03F1620905EB820000F0EB
:10A370003CF8064670BD10B504460021204600F0AA
:10A380001EF810BD10B504460121204600F02DF83E
:10A3900010BDF8B504460D466A4629462046FBF72F
:10A3A000DEFF06460098F8BDF8B504460D466A463D
:10A3B00029462046FBF7B9FF06460098F8BDF8B5D8
:10A3C00004460D466A4629462046FBF7AEFF064680
:10A3D0003046F8BDF8B504460D466A462946204683
:10A3E000FBF78AFF06463046F8BDF8B504460D4631
:10A3F0006A4629462046FBF78BFF06460098F8BDC3
:10A40000F8B504460D466A4629462046FBF7B4FFD8
:10A4100006460098F8BDF8B50446002600200090D6
:10A420006846FDF753F8206800686168884215D9CE
:10A4300020680068401E226810600178204600F005
:10A4400033F80646207A21680978401AC5B2206898
:10A450000079A84201DA2068057100BF9DF800006C
:10A46000FDF73AF83046F8BD0246D068081A138A5C
:10A47000B0FBF3F0C0B27047F8B504460D462E4667
:10A48000002000906846FDF721F831462046FFF78E
:10A49000EBFF21680A68511C2368196010709DF851
:10A4A0000000FDF719F8F8BD0246138AD06801FBD9
:10A4B0000300704710B5014600BF09B90E2010BD5A
:10A4C00000BF087A0B79C01AC2B2D1E90030186017
:10A4D00005E008680368581C0C6820601A70101E9C
:10A4E000A2F10103DAB2F4D10B68187100BFE6E7FC
:10A4F00030B502460B46D40802F007020120904016
:10A500001D5D284030BD30B50B46C20800F0070085
:10A510009C5C012585402C439C5430BD024600BF05
:10A520000AB90E20704700BF172901DBF72901DDAA
:10A530000720F7E711800020F4E770B504460E46C7
:10A5400000BF0CB90E2070BD00BF2661F72020802F
:10A5500060801B202071002505E0A11D01EBC500D6
:10A56000FFF79AFC6D1C002DF7D00020EBE70000F0
:10A570002DE9F047064688464546B488012C01DBA4
:10A58000BDE8F0873088242820D006DC102809D0C8
:10A5900011280CD0232823D11DE03A280CD05528AF
:10A5A0001ED10EE03146284602F03AF919E0314654
:10A5B000284602F00BFA14E03146284602F074FAFD
:10A5C0000FE03146284602F00BFA0AE031462846F1
:10A5D00002F088F905E03146284602F0ADF900E0C6
:10A5E00000BF00BFA81D00EBC400007918B3A81D70
:10A5F00030F834102046A5DF074657B90021A81DC2
:10A6000000EBC40001710121A81D00EBC4004171E1
:10A6100010E0112F0ED0384601F08EFB814607491D
:10A62000074A891AC908012242EA01404A4605A19F
:10A6300000F02EFE00BF00BFA2E70000B8FD020040
:10A64000B0FD020073645F626C655F676174746380
:10A650005F65786368616E67655F6D74755F72656D
:10A66000717565737428292072657475726E6564DE
:10A670002025732E00000000024600BF0AB90E20FC
:10A68000704700BF00BF1078DE2801D00820F7E730
:10A6900000BF51800020F3E7024600BF0AB90E2038
:10A6A000704700BF00BF09B90E20F9E700BF10785E
:10A6B000DE2801D10820F3E708685060DE20107022
:10A6C0004FF6FF7050800020EAE770B504460E4652
:10A6D00000BF06B970BD00BF00BF04B9FAE700BFF4
:10A6E000354600BF2878DE2800D0F3E700BFA088F9
:10A6F0006988884202D1284604F0B3FC20880128EA
:10A7000006D0022809D0112811D0512817D109E00C
:10A71000211D284602F0AEFA12E0211D284602F063
:10A72000A8FA0DE0211D284602F04EFA08E0A088A4
:10A730006988884202D14FF6FF70688000E000BF50
:10A7400000BF00BFC6E701464FF08040405808B147
:10A75000012070470020FCE708B500224FF080413F
:10A760000A500958009100BF08BD00000149086067
:10A770007047000008030040012291070A5070470B
:10A780002DE9F04104460CB9BDE8F08100BF4FF45B
:10A790007A7505B904E0054FAE013046B84700BFF1
:10A7A000601E041EF3D100BFEEE70000E1F10200DD
:10A7B00010B500240C48007808B1852411E0002071
:10A7C0000949886048600861C860084801F04AFB90
:10A7D000044601F0EFF908B901F03AFB0120024903
:10A7E0000870204610BD00005C360020058E020077
:10A7F00008B5002000906846FCF768FE0748C0686E
:10A80000401E0649C8600846C06808B9FFF73AFB11
:10A810009DF80000FCF760FE08BD00005C360020DB
:10A820002DE9F04188B004460F46154626781A48AF
:10A8300040F826501949386941F82600787F1849B0
:10A840008855202239466846FBF72EFE04964FF0C5
:10A85000000820781249085C50B10DB1114800E0A1
:10A86000002002466946201D01F028FD80460EE0CA
:10A8700020780B49085C50B90DB10B4800E000206E
:10A880000246694604F10C0001F0BEFB80464046DA
:10A8900008B0BDE8F0810000F02B0020F42B002070
:10A8A000F82B002031EB020085E902002DE9F04190
:10A8B00004460D461646002720780C49085C30B146
:10A8C00032462946201D01F039FD07460AE020786E
:10A8D0000649085C30B93246294604F10C0001F003
:10A8E000D7FB07463846BDE8F0810000F82B002072
:10A8F0002DE9F04104460D461646002720780C4904
:10A90000085C30B132462946201D01F0B3FD0746F0
:10A910000AE020780649085C30B93246294604F13D
:10A920000C0001F047FC07463846BDE8F081000006
:10A93000F82B00200FB438B50446059810B938BC80
:10A940005DF814FB0020009006A800906A4620469F
:10A95000059900F012F80020009000BFEFE770B5F5
:10A960000446A06800B970BDD4E90403A268216858
:10A9700098470020A06000BFF5E72DE9FC5F824604
:10A980000D4614460DB9BDE8FC9F00BF2E786D1C26
:10A9900006B9E1E0252E70D100274FF0010900BF74
:10A9A0002E782B2E0CD02D2E02D0302E0CD103E081
:10A9B00047F001076D1C0AE047F002076D1C06E036
:10A9C00047F004076D1C02E04FF0000900BF00BF14
:10A9D000B9F1000FE4D14FF0000800BF2A2E06D1D4
:10A9E0002168081D2060086880446D1C0DE02E78E9
:10A9F000302E01DB392E00DD07E06D1CA6F13000A2
:10AA000008EB880100EB4108E8E700BF4FF0000BBE
:10AA10002E782E2E10D16D1C00BF2E78302E01DB2B
:10AA2000392E00DD07E06D1CA6F130000BEB8B0129
:10AA300000EB410BF1E700BF2E7800BF6C2E01D078
:10AA4000682E02D16D1C2E7800E000E0F6E700BF12
:10AA5000692E21D008DC252E6DD0582E39D0632EDA
:10AA60000CD0642E6CD116E0702E4CD0732E3ED0DC
:10AA7000752E1FD0782E63D12AE065E02168081D6D
:10AA80002060D1F8009009F0FF0001905046019934
:10AA9000FEF78CF855E000BF2168081D2060D1F852
:10AAA00000905B460A2249465046CDE90087FEF7F2
:10AAB000BBFF46E02168081D2060D1F800905B468E
:10AAC0000A2249465046CDE9008704F0C1F938E032
:10AAD00000BF2168081D2060D1F800905B4610225D
:10AAE00049465046CDE9008704F0B2F929E02168D3
:10AAF000081D2060086801903B4642465046019977
:10AB000003F000F91DE02168081D2060D1F80090D5
:10AB100030215046FEF74AF878215046FEF746F8B5
:10AB2000002008210B461022CDE90010494650466E
:10AB300004F08EF905E025215046FEF737F800E0D5
:10AB400000BF00BF6D1C03E031465046FEF72EF8F3
:10AB5000287800287FF41AAF00BF9AF80C0010B1D3
:10AB60005046FFF7FCFE00BF0DE7F0B5DDE90545F7
:10AB700000BF4FF0A0473E4641EA420747EA83073D
:10AB800047EA042747EA054C06F5E06747F820C086
:10AB9000F0BDF0B5DDE9054500BF4FF0A0473E46EA
:10ABA00041EA420747EA830747EA042747EA054C98
:10ABB00006F5E06747F820C0F0BD1CB5044600204C
:10ABC000009003460122014601902046FFF7CDFF89
:10ABD0001CBD1CB50446002000900346012201461E
:10ABE00001902046FFF7D5FF1CBD7CB505460C46FD
:10ABF0000020009023460246014601902846FFF7B8
:10AC0000B4FF7CBD7CB505460C4600200090234671
:10AC10000246014601902846FFF7BBFF7CBD1CB5EC
:10AC20000446002000900346012211460190204670
:10AC3000FFF79BFF1CBD1CB5044600200090034697
:10AC40000122114601902046FFF7A3FF1CBD10B55D
:10AC50000A4600BF4FF0A043194601F5E06353F8E0
:10AC6000203023F4403401F5E06343F8204053F8EA
:10AC7000203043EA024401F5E06343F8204010BD70
:10AC800000BF4FF0A0410A46012303FA00F1C2F8C9
:10AC90000C1500BF704700BF4FF0A0410A460123CA
:10ACA00003FA00F1C2F80C1500BF704700BF4FF067
:10ACB000A0410A46012303FA00F1C2F8081500BFBB
:10ACC000704700BF4FF0A0410A46012303FA00F18C
:10ACD000C2F8081500BF704700BF4FF0A0410A46F8
:10ACE000012303FA00F1C2F8081500BF704710B540
:10ACF00061B900BF00BF4FF0A0421346012404FA1F
:10AD000000F2C3F80C2500BF00BF0CE000BF00BF7D
:10AD10004FF0A0421346012404FA00F2C3F80825BC
:10AD200000BF00BF00BF10BD38B50B46074C2468FC
:10AD30000094014606E05DF82140D4F810551560F6
:10AD4000121D491CC4188C42F5D838BD5CF20200B3
:10AD500001460148084470470060004038B5044689
:10AD60002046FFF7F5FF002101602046FFF7F0FFC6
:10AD70000068009000BF38BD10B504462046FFF7BC
:10AD8000E7FF0068012800D110BD0020FCE70000AB
:10AD900070B504460E46FCF769FC0546681C08B908
:10ADA000284670BDE8B2E168087100BF0C48D0F8D1
:10ADB000100430B90A48C0F810440020E168086067
:10ADC0000BE00748D0F81004C0680068E16808602C
:10ADD0000348D0F81004C06804602846E1E700008A
:10ADE00078390020704710B5FBF780FD10BD704723
:10ADF00038B504460D4604484023044A29460090CD
:10AE0000204600F005F838BD85D80200E037002064
:10AE10002DE9F04F93B082460E4617469846DDF86E
:10AE20007090304600F0D3FB18210DA8FBF755FBBE
:10AE30000D97CDF83880CDF8489000252B46082294
:10AE400007A9304600F0E0FB082509980A90BDF8F4
:10AE50002000ADF82C00BDF82200ADF82E00002037
:10AE60008DF83100079800F0030001281BD10798E6
:10AE70004FEA902B0798C0F3C2008DF83000079876
:10AE8000C0F38314A2002B4601A9304600F0BCFB9E
:10AE900005EB84050DA80AAB224601A9009058468F
:10AEA00000F0D4FA27E0079800F00300022822D12E
:10AEB00007984FEA905B0798C0F3C2008DF8300006
:10AEC00000BFBBF1080F01D2584600E0082004463D
:10AED0002B46224605A9304600F096FB2544ABEBF5
:10AEE000040B0DAB0AAA214605A800F0EDF9BBF151
:10AEF000000FE6D100BF304600F077FB13B0BDE88D
:10AF0000F08F000010B502460B4C04EBC203012980
:10AF100006D0022906D0032906D0042908D105E06D
:10AF2000022007E0042005E0187903E0587901E0E9
:10AF3000002000BF00BF10BDB0FD020010B54FF0F3
:10AF4000FF34FFF750FF04210548FFF721FF0446B7
:10AF500000BF01200249C968487100BF10BD000050
:10AF6000A0FD02002DE9F04F8BB0FDF735FE18B1C2
:10AF700000200BB0BDE8F08F0020B749C1F81804DD
:10AF800000BF00BF00BFBFF34F8F00BF00BF00BFB7
:10AF9000084640680A90084684680A9820400C31A8
:10AFA00001EB800A002500260020069000BF0AA9B8
:10AFB0005046FEF765FEA8B1A748D0F8180488B936
:10AFC000A54800680A99884205D8A3480068A249A4
:10AFD00048600020CDE70A9820409F490C3101EBE2
:10AFE000800A00E000E0E2E700BF00270BE00A98DB
:10AFF000411C20400A9198490C3151F8200007A9C2
:10B0000041F827007F1C022FF1D3079800F00300BE
:10B0100002287CD10798800D059050210798B1EB4C
:10B02000905F02DD0798800D00E050208146079870
:10B0300069F39F50079009F1080004900798C0F346
:10B04000C20006908548049900F064FA0546002D78
:10B050005BD0284600F0BBFA3346082207A92846F1
:10B0600000F0E3FA08360A982040611C081A4FEAFB
:10B070008008C14535D9B8F1000F06D00A982040A4
:10B0800075490C3101EB800001E073480C300390EE
:10B09000B8F1000F01D0404600E0484600F0FF0B39
:10B0A000B8F1000F02D06C480C3000E00020029094
:10B0B000B8F1000F02D0A9EB080000E00020C0B2F8
:10B0C000019033465A462846039900F0AEFA5E4492
:10B0D000029828B133462846DDE9012100F0A5FA9F
:10B0E0000CE00A9820405C490C3101EB800B3346A0
:10B0F0004A465946284600F098FA00BF0598C01CF9
:10B100000A9901EB90000A9000BF44E0FFE707981E
:10B1100000F0030001283ED10798C0F383100628F1
:10B1200003DA0798C0F3831000E00620079960F364
:10B13000891107910798C0F3831000F1020807985E
:10B14000C0F3C20006904FEA8801444800F0E2F9DB
:10B150000546FDB1284600F03AFA3346082207A911
:10B16000284600F062FA083600270EE00A98421CD2
:10B1700020400A92384A0C3202EB80013346042206
:10B18000284600F052FA361D7F1C0798C0F3831042
:10B19000B842EBD800BFE5B32F48D0F81084D0F800
:10B1A000180418B1284600F020FA31E019E04FF0F9
:10B1B000000900BFD8F80C004079012800D1814671
:10B1C000B9F1000F08D000BFD8F800002946026886
:10B1D0004046904700BF00BFD8F80C00D0F8008070
:10B1E00000BFB8F1000FE2D1284600F0FEF90020C0
:10B1F000059005A8FCF76AF91748D0F8180410B9AB
:10B2000015490A9848609DF81400FCF765F900BFDD
:10B210001DE0FFE71048D0F810840AE0C146D9F8D5
:10B22000000081684846884700BFD8F80C00D0F875
:10B230000080B8F1000FF1D109490A4A891AC908FA
:10B24000022242EA014008A100F018F800BFFDF711
:10B25000C3FC80F001008CE67839002054FE020027
:10B2600020FE0200B0FD02004261636B656E6473F4
:10B2700020666C75736865640000000070B5044654
:10B280000D4600231A462946204602F003FD70BDF4
:10B29000F8B505460E461446009401236A46314629
:10B2A000284602F0F7FCF8BD2DE9FC4106460F46A2
:10B2B00014461D460094019502236A4639463046DD
:10B2C00002F0E8FCBDE8FC812DE9F05F07460E4680
:10B2D00090461D46082E01D9BDE8F09F95F80C90C8
:10B2E000002028732946404601F008FF00240CE0A6
:10B2F000B44205D23A5D1DA12846FFF71BFB03E0CF
:10B300001CA12846FFF716FB641C082CF0D31AA1D9
:10B310002846FFF70FFB00241DE0B44216D217F8B1
:10B3200004A0BAF17E0F09DCFBF7BAF8006810F848
:10B330000A0000F03E0008B1504600E02E2083468F
:10B340005A460EA12846FFF7F5FA03E00CA128465D
:10B35000FFF7F0FA641C082CDFD30122294640468F
:10B3600001F0C4FD85F80C9000BFB5E72025303210
:10B3700078000000202020007C00000025630000F1
:10B38000200000002DE9F04106460F4600BFFF20D7
:10B390000D498860002008604860C1F81804C1F8B1
:10B3A000140481F82004094800F019F9044614B186
:10B3B0002046BDE8F081064800F0A4F9054806499A
:10B3C000401AC5080020F4E77839002054FE020036
:10B3D000C8F4020040FE0200B0FD0200024803492A
:10B3E000401AC0087047000040FE0200B0FD020095
:10B3F00013B50C4621466846FEF7C4FE28B904483A
:10B40000009A00EBC20108681CBD0020FCE70000A8
:10B41000B0FD020070B50C48D0F8104401200A4974
:10B4200081F820040CE000BF0120E168487100BFF2
:10B430002546286841682846884700BFE0680468B8
:10B44000002CF0D170BD0000783900202DE9FF47B5
:10B4500007460C46164698460C9D95F80C90002021
:10B4600028732946404601F049FE072E47D2DFE8FF
:10B4700006F004090F161F2A370039462846FFF741
:10B4800059FA3DE0394628462268FFF753FA37E07B
:10B4900039462846D4E90023FFF74CFA30E0A0688B
:10B4A000009039462846D4E90023FFF743FA27E005
:10B4B000D4E90201CDE9000139462846D4E9002348
:10B4C000FFF738FA1CE0D4E902122069CDE9001236
:10B4D000029039462846D4E90023FFF72BFA0FE003
:10B4E000D4E90223D4E90410CDE90023CDE9021008
:10B4F00039462846D4E90023FFF71CFA00E000BFD4
:10B5000000BF00222946404601F0F0FC85F80C906F
:10B51000BDE8FF872DE9F84F07468A46388AA0F133
:10B5200004080AF104004044401EB0FBF8F0C0B229
:10B5300000903846FEF76FFF044614B90020BDE8BE
:10B54000F88F0020207101216171A4F80680254642
:10B550000098A0F1010B2C462F604FF0000912E07B
:10B560003846FEF758FF064636B16079401C6071D8
:10B570002E603760354604E0204600F008F80020D1
:10B58000DDE709F10109D945EAD32046D7E72DE9DE
:10B59000F05F0446274697F805802646A8F1010B80
:10B5A000002501E036686D1C5D45FBD3D6F800A090
:10B5B0002646002507E0D6F8009031465046FEF7B3
:10B5C0005BFF4E466D1C4545F5D3BDE8F09F70B559
:10B5D000044625460121281DFEF7DBFE70BD10B58F
:10B5E00004462046FEF766FF10BDF8B50446264621
:10B5F0000121301DFEF704FF00906D46287810B938
:10B600002046FFF7C4FFF8BD2DE9FC4105460E4674
:10B6100014461F46019401203B4601AA3146009082
:10B620002846FEF74AFDBDE8FC812DE9FC410546B0
:10B630000E4614461F46019400203B4601AA31469F
:10B6400000902846FEF739FDBDE8FC8110B50020CA
:10B650000A49087000BF0A49086000BF00BF00BF68
:10B6600000BFBFF35F8F00BF00BF00BF00BF054931
:10B67000054800F0D2FA002010BD00006C2C00201C
:10B68000682C0020A0F40200D437002038B500BF99
:10B69000002000906846FBF719FF00BFF1EE100A8A
:10B6A000044624F09F00E1EE100A00BF00BF00BF77
:10B6B00000BF00BFBFF35F8F00BF00BF00BF2620E9
:10B6C00000F01F0201219140094A430942F823106A
:10B6D00000BF9DF80000FBF7FFFE00BF00F06AFA14
:10B6E00010B141DF044602E020BF40BF20BF38BD9B
:10B6F00080E200E010B5044600BF2046FBF74AFD9B
:10B7000000BF10BD0021826891608268116182686B
:10B7100051618268D16082685160826811607047AF
:10B7200000F5A86343F8212070470146D1F80405CD
:10B73000704708B5002242504258009200BF08BD31
:10B7400008B5002242504258009200BF08BDC0F820
:10B7500048137047C0F848137047C0F84413704747
:10B76000024650587047C0F808137047C0F80813D5
:10B770007047C0F8041370470246D2F8040308402B
:10B780007047012242507047014609B90E207047A8
:10B790000248006808600020F9E7000058F5020040
:10B7A000FEB506460C462046FFF7EEFF05460DB1F6
:10B7B0002846FEBD00200090019002908DF80060A8
:10B7C00001208DF802000621ADF804106946202002
:10B7D000226869DF054675B1284600F0ADFA0746D4
:10B7E0004F49504A891AC908012242EA01403A46A3
:10B7F0004D49FFF74DFD002000900190029001207F
:10B800008DF8010000208DF802008DF803006946D4
:10B810004020226869DF054675B1284600F08CFAA1
:10B8200007463F493F4A891AC908012242EA0140B6
:10B830003A463E49FFF72CFD00200090019002900F
:10B840008DF80060F720ADF80200694623202268D9
:10B8500069DF054675B1284600F06EFA07463049A3
:10B86000304A891AC908012242EA01403A46304961
:10B87000FFF70EFD002000900190029001208DF84E
:10B8800000006946226869DF054675B1284600F068
:10B8900053FA07462249234A891AC908012242EA73
:10B8A00001403A462349FFF7F3FC00200090019045
:10B8B00002904FF4B06000906946A120226869DFD1
:10B8C000054675B1284600F037FA07461449154A6F
:10B8D000891AC908012242EA01403A461649FFF78F
:10B8E000D7FC002000900190029001208DF800000C
:10B8F0006946A020226869DF054675B1284600F038
:10B900001BFA07460649074A891AC908012242EA72
:10B9100001403A460949FFF7BBFC002049E7000017
:10B9200030FE0200B0FD0200ECFB020034FC02001D
:10B9300080FC02004CFB020098FB0200F8FA0200B7
:10B940002DE9F04104462568204660DF0646206860
:10B95000A84225D91E491F4A891AC908022242EA6B
:10B9600001401DA1FFF78AFC19491A4A891AC90822
:10B97000022242EA01402A4623A12368FFF794FCF1
:10B9800001F020FD2168471A1149124A891AC90895
:10B99000022242EA01403A4628A1FFF779FC00E082
:10B9A00000BF1EB90120304908700EE0304600F09B
:10B9B000C3F907460649074A891AC908012242EA1B
:10B9C00001403A4629A1FFF763FC3046BDE8F0810B
:10B9D00030FE0200B0FD0200496E73756666696351
:10B9E00069656E742052414D20616C6C6F636174A7
:10B9F000656420666F722074686520536F667444B6
:10BA000065766963652E00004368616E6765207422
:10BA100068652052414D207374617274206C6F63AD
:10BA20006174696F6E2066726F6D203078257820A2
:10BA3000746F20307825782E000000004D61786901
:10BA40006D756D2052414D2073697A6520666F7265
:10BA5000206170706C69636174696F6E2069732016
:10BA6000307825782E000000CB2C002073645F62B4
:10BA70006C655F656E61626C6528292072657475FE
:10BA8000726E65642025732E000000002DE9F041E0
:10BA9000ADF5027D80461848007818B90DF5027D95
:10BAA000BDE8F0811DE04FF4FA70049004A905A8E8
:10BAB00061DF044604B115E005AD104901A800F0AE
:10BAC000ACF809E000BF039806463768284671685D
:10BAD000B84701A800F0C2F800BF03980028F1D1D0
